:020000040800F2
:1000000000800020751F0008B3120008B512000818
:10001000B7120008B9120008BB1200080000000067
:10002000000000000000000000000000BD120008F9
:10003000BF12000800000000C1120008C31200082F
:10004000C51F0008C51F0008CD120008C51F000805
:10005000C51F0008C51F0008C51F0008C51F0008F0
:10006000C51F0008C51F0008C51F0008C51F0008E0
:10007000C51F0008C51F0008C51F0008E9120008B9
:10008000C51F0008C51F0008C51F0008C51F0008C0
:1000900000000000C51F0008C51F0008C51F00089C
:1000A000C51F0008C51F0008C51F0008C51F0008A0
:1000B000C51F0008C51F0008C51F0008C51F000890
:1000C000C51F0008C51F0008C51F0008C51F000880
:1000D000F9120008C51F0008C51F0008C51F000849
:1000E000C51F0008DD12000809130008C51F00081D
:1000F000C51F00080000000000000000C51F000828
:10010000C51F0008C51F000819130008C51F0008F7
:10011000C51F0008C51F0008C51F0008C51F00082F
:10012000C51F0008C51F0008C51F0008C51F00081F
:08013000C51F0008C51F0008EF
:1001380010B5054C237833B9044B13B10448AFF319
:1001480000800123237010BDDC00002000000000A7
:100158006812010808B5034B1BB103490348AFF304
:10016800008008BD00000000E000002068120108BF
:10017800034613F8012B002AFBD1181A01387047DF
:1001880081F0004102E000BF83F0004330B54FEA40
:1001980041044FEA430594EA050F08BF90EA020FAD
:1001A8001FBF54EA000C55EA020C7FEA645C7FEA40
:1001B800655C00F0E2804FEA5454D4EB5555B8BF63
:1001C8006D420CDD2C4480EA020281EA030382EAD4
:1001D800000083EA010180EA020281EA0303362D66
:1001E80088BF30BD11F0004F4FEA01314FF4801C39
:1001F8004CEA113102D0404261EB410113F0004F4B
:100208004FEA03334CEA133302D0524263EB430301
:1002180094EA050F00F0A780A4F10104D5F1200E9F
:100228000DDB02FA0EFC22FA05F2801841F10001FA
:1002380003FA0EF2801843FA05F359410EE0A5F1CE
:1002480020050EF1200E012A03FA0EFC28BF4CF0FF
:10025800020C43FA05F3C01851EBE37101F00045B5
:1002680007D54FF0000EDCF1000C7EEB00006EEBC2
:100278000101B1F5801F1BD3B1F5001F0CD349084C
:100288005FEA30004FEA3C0C04F101044FEA4452A3
:1002980012F5800F80F09A80BCF1004F08BF5FEA2A
:1002A800500C50F1000041EB045141EA050130BD0A
:1002B8005FEA4C0C404141EB0101013C28BFB1F51C
:1002C800801FE9D291F0000F04BF01460020B1FA67
:1002D80081F308BF2033A3F10B03B3F120020CDA3A
:1002E8000C3208DD02F1140CC2F10C0201FA0CF018
:1002F80021FA02F10CE002F11402D8BFC2F1200C7D
:1003080001FA02F120FA0CFCDCBF41EA0C01904032
:10031800E41AA2BF01EB0451294330BD6FEA04047B
:100328001F3C1CDA0C340EDC04F11404C4F1200266
:1003380020FA04F001FA02F340EA030021FA04F378
:1003480045EA030130BDC4F10C04C4F1200220FACF
:1003580002F001FA04F340EA0300294630BD21FA0D
:1003680004F0294630BD94F0000F83F4801306BFD3
:1003780081F480110134013D4EE77FEA645C18BFC7
:100388007FEA655C29D094EA050F08BF90EA020F5E
:1003980005D054EA000C04BF1946104630BD91EA56
:1003A800030F1EBF0021002030BD5FEA545C05D159
:1003B8004000494128BF41F0004130BD14F5800498
:1003C8003CBF01F5801130BD01F0004545F0FE410C
:1003D80041F470014FF0000030BD7FEA645C1ABF41
:1003E800194610467FEA655C1CBF0B46024650EA78
:1003F800013406BF52EA033591EA030F41F40021A4
:1004080030BD00BF90F0000F04BF0021704730B529
:100418004FF4806404F132044FF000054FF00001FE
:1004280050E700BF90F0000F04BF0021704730B5BF
:100438004FF4806404F1320410F0004548BF404294
:100448004FF000013EE700BF42004FEAE2014FEAE9
:1004580031014FEA02701FBF12F07F4393F07F4FC4
:1004680081F06051704732F07F4208BF704793F0C7
:100478007F4F04BF41F40021704730B54FF46074DA
:1004880001F0004521F000411CE700BF50EA0102DD
:1004980008BF704730B54FF000050AE050EA010286
:1004A80008BF704730B511F0004502D5404261EBF6
:1004B80041014FF4806404F132045FEA915C3FF437
:1004C800D8AE4FF003025FEADC0C18BF03325FEAD4
:1004D800DC0C18BF033202EBDC02C2F1200300FA85
:1004E80003FC20FA02F001FA03FE40EA0E0021FAAA
:1004F80002F11444BDE600BF4FF0FF3C06E000BF28
:100508004FF0010C02E000BF4FF0010C4DF804CD94
:100518004FEA410C7FEA6C5C4FEA430C18BF7FEA54
:100528006C5C1BD001B050EA410C0CBF52EA430C82
:1005380091EA030F02BF90EA020F0020704710F102
:10054800000F91EA030F58BF994208BF90422CBF91
:10055800D8176FEAE37040F0010070474FEA410C8A
:100568007FEA6C5C02D150EA013C07D14FEA430CA8
:100578007FEA6C5CD6D152EA033CD3D05DF8040B19
:10058800704700BF8446104662468C46194663464B
:1005980000E000BF01B5FFF7B7FF002848BF10F122
:1005A800000F01BD4DF808EDFFF7F4FF0CBF012067
:1005B80000205DF808FB00BF4DF808EDFFF7EAFFE3
:1005C80034BF012000205DF808FB00BF4DF808ED9E
:1005D800FFF7E0FF94BF012000205DF808FB00BF93
:1005E8004DF808EDFFF7CEFF94BF012000205DF81D
:1005F80008FB00BF4DF808EDFFF7C4FF34BF01202A
:1006080000205DF808FB00BF4FEA410212F5001216
:1006180015D211D56FF47873B3EB625212D94FEA41
:10062800C12343F0004343EA505311F0004F23FA2B
:1006380002F018BF404270474FF00000704750EA80
:10064800013005D111F0004008BF6FF0004070473D
:100658004FF00000704700BF80F0004002E000BF8C
:1006680081F0004142001FBF5FEA410392EA030F95
:100678007FEA226C7FEA236C6AD04FEA1262D2EBDF
:100688001363C1BFD218414048404140B8BF5B42E4
:10069800192B88BF704710F0004F40F4000020F07D
:1006A8007F4018BF404211F0004F41F4000121F093
:1006B8007F4118BF494292EA030F3FD0A2F10102DD
:1006C80041FA03FC10EB0C00C3F1200301FA03F11B
:1006D80000F0004302D5494260EB4000B0F5000F3E
:1006E80013D3B0F1807F06D340084FEA310102F1FD
:1006F8000102FE2A51D2B1F1004F40EBC25008BFAF
:1007080020F0010040EA03007047490040EB000078
:10071800013A28BFB0F5000FEDD2B0FA80FCACF179
:10072800080CB2EB0C0200FA0CF0AABF00EBC250A6
:1007380052421843BCBFD0401843704792F0000F94
:1007480081F4000106BF80F400000132013BB5E7E7
:100758004FEA41037FEA226C18BF7FEA236C21D05D
:1007680092EA030F04D092F0000F08BF08467047C2
:1007780090EA010F1CBF0020704712F07F4F04D190
:10078800400028BF40F00040704712F100723CBFA3
:1007980000F50000704700F0004343F0FE4040F4CD
:1007A800000070477FEA226216BF08467FEA23638B
:1007B8000146420206BF5FEA412390EA010F40F476
:1007C800800070474FF0000304E000BF10F00043C2
:1007D80048BF40425FEA000C08BF704743F09643A9
:1007E80001464FF000001CE050EA010208BF7047C4
:1007F8004FF000030AE000BF50EA010208BF70474B
:1008080011F0004302D5404261EB41015FEA010C5F
:1008180002BF84460146002043F0B64308BFA3F157
:100828008053A3F50003BCFA8CF2083AA3EBC25339
:1008380010DB01FA02FC634400FA02FCC2F1200258
:10084800BCF1004F20FA02F243EB020008BF20F08F
:100858000100704702F1200201FA02FCC2F12002F5
:1008680050EA4C0021FA02F243EB020008BF20EAEA
:10087800DC7070474FF0FF0C1CEAD0521EBF1CEA18
:10088800D15392EA0C0F93EA0C0F6FD01A4480EA06
:10089800010C400218BF5FEA41211ED04FF00063EF
:1008A80043EA501043EA5111A0FB01310CF000401B
:1008B800B1F5000F3EBF490041EAD3715B0040EA41
:1008C800010062F17F02FD2A1DD8B3F1004F40EB11
:1008D800C25008BF20F00100704790F0000F0CF0E4
:1008E800004C08BF49024CEA502040EA51207F3AA8
:1008F800C2BFD2F1FF0340EAC250704740F4000083
:100908004FF00003013A5DDC12F1190FDCBF00F073
:1009180000407047C2F10002410021FA02F1C2F121
:10092800200200FA02FC5FEA310040F1000053EABD
:100938004C0308BF20EADC70704792F0000F00F00B
:10094800004C02BF400010F4000F013AF9D040EA11
:100958000C0093F0000F01F0004C02BF490011F4A5
:10096800000F013BF9D041EA0C018FE70CEAD153A3
:1009780092EA0C0F18BF93EA0C0F0AD030F0004C23
:1009880018BF31F0004CD8D180EA010000F00040D7
:10099800704790F0000F17BF90F0004F084691F095
:1009A800000F91F0004F14D092EA0C0F01D14202CF
:1009B8000FD193EA0C0F03D14B0218BF084608D198
:1009C80080EA010000F0004040F0FE4040F40000E2
:1009D800704740F0FE4040F4400070474FF0FF0C75
:1009E8001CEAD0521EBF1CEAD15392EA0C0F93EABC
:1009F8000C0F69D0A2EB030280EA010C49024FEA0E
:100A0800402037D04FF0805343EA111143EA1013C6
:100A18000CF000408B4238BF5B0042F17D024FF47E
:100A2800000C8B4224BF5B1A40EA0C00B3EB510F59
:100A380024BFA3EB510340EA5C00B3EB910F24BF42
:100A4800A3EB910340EA9C00B3EBD10F24BFA3EBC7
:100A5800D10340EADC001B0118BF5FEA1C1CE0D18F
:100A6800FD2A3FF650AF8B4240EBC25008BF20F042
:100A7800010070470CF0004C4CEA50207F32C2BF96
:100A8800D2F1FF0340EAC250704740F400004FF033
:100A98000003013A37E792F0000F00F0004C02BF64
:100AA800400010F4000F013AF9D040EA0C0093F02E
:100AB800000F01F0004C02BF490011F4000F013B88
:100AC800F9D041EA0C0195E70CEAD15392EA0C0FF0
:100AD80008D142027FF47DAF93EA0C0F7FF470AF28
:100AE800084676E793EA0C0F04D14B023FF44CAF6B
:100AF80008466EE730F0004C18BF31F0004CCAD100
:100B080030F000427FF45CAF31F000437FF43CAF3B
:100B18005FE700BF42000ED2B2F1FE4F0BD34FF099
:100B28009E03B3EB126209D44FEA002343F000435B
:100B380023FA02F070474FF00000704712F1610F7E
:100B480001D1420202D14FF0FF3070474FF0000050
:100B5800704700BF53B94AB9002908BF00281CBF15
:100B68004FF0FF314FF0FF3000F088B9ADF1080CBD
:100B78006DE904CE00F006F8DDF804E0DDE90223B3
:100B880004B070472DE9F047089D8E460446884614
:100B9800002B4AD18A42174662D9B2FA82F64EB180
:100BA800C6F1200301FA06F820FA03F3B74043EA36
:100BB8000808B4404FEA174E1FFA87FCB8FBFEF14D
:100BC800230C0EFB118843EA084301FB0CF29A42FE
:100BD80009D9FB1801F1FF3080F0EA809A4240F20F
:100BE800E78002393B449A1AA3B2B2FBFEF00EFB2F
:100BF800102243EA024300FB0CFC9C4509D9FB1870
:100C080000F1FF3280F0D6809C4540F2D3803B440F
:100C1800023840EA0140A3EB0C0300211DB1F34068
:100C28000022C5E90032BDE8F0878B4205D90DB135
:100C3800C5E9000100210846F5E7B3FA83F1002968
:100C480046D1734502D3824200F20581841A6EEBC5
:100C5800030201209046002DE5D0C5E90048E2E7EF
:100C6800002A00F09080B2FA82F6002E40F0A480AC
:100C78008A1A030C4FEA174E80B2BCB20121B2FBAC
:100C8800FEFC0EFB1C2243EA024304FB0CF29A42D0
:100C980007D9FB180CF1FF3802D29A4200F2E08023
:100CA800C4469B1AB3FBFEF20EFB123340EA034321
:100CB80002FB04F49C4207D9FB1802F1FF3002D270
:100CC8009C4200F2CA8002461B1B42EA0C40A5E780
:100CD800C1F120068B4022FA06F71F430EFA01F4F1
:100CE80020FA06F32EFA06FE4FEA1749234300FAC4
:100CF80001F81FFA87FCBEFBF9F01C0C09FB10EE8B
:100D080044EA0E4400FB0CFEA64502FA01F209D99A
:100D18003C1900F1FF3A80F09C80A64540F299808A
:100D280002383C44A4EB0E041FFA83FEB4FBF9F32B
:100D380009FB13444EEA044403FB0CFCA44508D900
:100D48003C1903F1FF3E80F08280A4457FD9023B25
:100D58003C4443EA0040A4EB0C04A0FB02EC6445CD
:100D68007346E14662D35FD05DB1B8EB030264EB32
:100D7800090404FA06F622FA01F31E43CC40C5E939
:100D8800006400214FE7B1FBF2FC010C41EA0E417F
:100D980080B240EA01423B4638463C46B846BE4629
:100DA8002026B1FBF7F1A2EB080241EA0C4166E705
:100DB800014618E710462CE7C6F120022EFA02F386
:100DC800B740B14020FA02F24FEA174E0A43B3FB8C
:100DD800FEF8BCB20EFB1833110C41EA034108FBC4
:100DE80004F9B04089454FEA104380B23ED97918DA
:100DF80008F1FF3C01D289451FD8A1EB0901B1FBDD
:100E0800FEF909FB04F80EFB191192B242EA0142FD
:100E1800424529D2BA1809F1FF31C4D24245C2D29B
:100E2800A9F102013A44BEE7F0459DD2BEEB0203A8
:100E38006CEB070C0138E14696E7A7EB0909494432
:100E4800A8F1020CB1FBFEF909FB04F8DBE77346D5
:100E58007FE7504666E70846FDE63B44023A33E73B
:100E6800ACF1020C3B441CE749469CE7A1EB0901A5
:100E7800C446B1FBFEF909FB04F8C4E7704700BF9C
:100E880008B51348134B03604FF000434360002339
:100E98008360C360036104224261037643768376EC
:100EA8000122C26180F820304362836280F82C30CE
:100EB8004FF48052026307224263826380F83C3019
:100EC800C36401F095F900B908BD00F0FCF8FBE730
:100ED800F8000020002401400268094B9A4200D023
:100EE800704782B04FF0B0431A6E42F400721A662F
:100EF8001B6E03F400730193019B02B0704700BF9F
:100F0800002401400268054B9A4200D070474FF018
:100F1800B042136E23F400731366F7E70024014010
:100F280030B585B004460023019302930393FFF77D
:100F3800A7FF164801F0B0FDF8B901940023029309
:100F4800039301A9114801F0F3FAC8B90F4801F059
:100F5800B1FCC0B90D4C4FF0FF31204601F086FAC4
:100F6800204601F079FD204601F0DFFA05462046CB
:100F780001F01CFD284605B030BD00F0A4F8DCE700
:100F880000F0A1F8E2E700F09EF8E3E7F80000209F
:100F9800014B024A1A607047F80000200024014003
:100FA80008B50D48FFF7BCFFA0B103460B4AB2F8DD
:100FB800AA004FF6FF72904207D040F6E44202FBC7
:100FC80000F0B0FBF3F080B205E00548B0FBF3F0A9
:100FD80080B200E0002008BD002000B40075FF1FAB
:100FE800D8084C0010B582B0FFF7DAFF04461F4856
:100FF800FFF796FF1E4AB2F8C830B2F8A82093420D
:101008001AD000FB04F4A4081A49A1FB0414C2EB8B
:101018005414642101FB04F49B1A94FBF3F41E346A
:1010280024B20094144B0122002110460FF0C6FA96
:10103800200200B202B010BD04FB00F00F4BA3FB6E
:101048000023C41A03EB5403DB0A4FF47A7202FB41
:1010580003F3A3F53923A3F50C63094A82FB0312B2
:10106800DB17C3EBA2231E331CB2DAE7001000B073
:101078000075FF1F9F00EE09E8120108010110002A
:10108800AD8BDB6800B583B04FF0B0439A6C42F08B
:1010980004029A649A6C02F004020192019A9A6C12
:1010A80042F001029A649B6C03F001030093009BD9
:1010B800002202210F2001F0A5FD0F2001F0B2FD52
:1010C80003B05DF804FB72B6FEE710B59AB048228B
:1010D800002108A810F018F800240294039404943E
:1010E80005940694079402F081F94FF0B042D2F8C3
:1010F800903023F01803C2F8903002F5806213682C
:1011080023F4C06343F400731360136803F4C063EB
:101118000193019B2423089381230B9301231093AC
:101128001194B0231293139408A802F0F9FA70B935
:101138004F23029300230393049305930693079385
:10114800022102A802F028FE18B91AB010BDFFF754
:10115800BAFFFFF7B8FF08B500F0F0FFFFF7B5FFDB
:1011680000F08AFC00F08EFCFCE7000000B58DB0B2
:101178002C22002101A80FF0C7FF1948194B036062
:101188001F23836000230361436183614FF0804222
:10119800C26103624FF48073436203F025F9A8B972
:1011A8000F4803F05FFAA0B9002208920292069253
:1011B8004FF0005307934FF480730B9301A908482D
:1011C80003F074F940B90DB05DF804FBFFF77BFF3D
:1011D800E6E7FFF778FFE7E7FFF775FFF3E700BFFC
:1011E8005C0100200028004010B590B00446382269
:1011F800002102A80FF088FF22681A4B9A4201D0FA
:1012080010B010BD4FF4803302934FF480730F93E6
:1012180002A802F003FF08BB4FF0B043D3F89020B8
:1012280042F40042C3F890209A6D42F480629A65B5
:101238009B6D03F480630193019B002211460220F9
:1012480001F0E0FC022001F0EDFC002211462A200A
:1012580001F0D8FC2A2001F0E5FCD1E7FFF733FFC5
:10126800DAE700BF002800407047704708B500F073
:1012780087FF0120024BC3F8880002F01BF908BD64
:101288000004005808B500F082FF08BD08B500F05A
:101298007EFF00F0BFFB08BD08B500F071FF01211B
:1012A800002002F0ABF808BD70477047FEE7FEE784
:1012B800FEE7FEE770477047704708B500F054FF37
:1012C80008BD000008B5024803F0F8F908BD00BFE2
:1012D8005C01002008B54FF4005002F079F808BD11
:1012E80008B5024801F0A2FE08BD00BFA801002011
:1012F80008B5024803F0A2FE08BD00BF080200209E
:1013080008B5024802F0EAFF08BD00BF5C010020F2
:1013180008B5024803F080FC08BD00BF9401002016
:1013280008B505480823036003F0FEF900B908BDB5
:10133800FFF7C9FEFBE700BF9401002000B583B0AA
:101348004FF0B0435A6E42F001025A665B6E03F0EA
:1013580001030193019B00221146322001F052FC47
:10136800322001F05FFC03B05DF804FB0CB400B55B
:1013780083B004AB53F8042B01930FF001FE03B0C4
:101388005DF804EB02B0704730B585B004460D46F1
:1013980002A80FF069FBBDF90C300093029B054AC7
:1013A80010212046FFF7E2FF2046FEF7E1FE2880E5
:1013B80005B030BDF412010808B54FF0B04293688B
:1013C80023F4004393600FF0D3FB00F0BCF800F067
:1013D800DCF80FF07FF808480FF096F802200FF0BD
:1013E80099F8FFF7D5FD00F0E7F80FF0A3F9012110
:1013F80008460FF0BFF908BD9113000808B50FF0B3
:10140800CFF908BD10B582B0FFF7CAFD40F6B83372
:1014180098420DD8B0F5E16F15D3A0F5E160C0EBA7
:10142800C0104400094BA3FB0434C4F3C71400E004
:10143800FE240094064B0122002102200FF0BEF882
:10144800204602B010BD0024F3E700BFB5814E1B53
:101458000013010808B5FFF7C5FD0346002802DBA5
:10146800C3F30F2008BD00F1FF03F9E738B50446C0
:10147800184BD3F88035B3F1FF3F13D0C3711A0A64
:1014880082711A0C42711B0E0371124BD3F884251A
:10149800C270D3F884351A0A82701A0C42701B0E77
:1014A800037038BD00F07AFE054600F083FE05445F
:1014B80000F07AFE2B0EE3712B0CA3712B0A6371DB
:1014C8002571030EE370030CA370030A6370207088
:1014D800E7E700BF0070FF1F084BD3F88005B0F1A5
:1014E800FF3F00D0704710B500F058FE044600F0EA
:1014F8005BFE444000F05EFE604010BD0070FF1FC0
:1015080008B5012102200FF01FF908BD08B5002118
:1015180002200FF019F908BD0020704708B500F047
:1015280069F808BD00B583B00190019800F03AF958
:1015380003B05DF804FB08B500F042FE00F048FE79
:1015480000F04EFE08BD10B586B000240194029448
:10155800039404940594032302934FF4C043019326
:101568004FF0B043DA6C42F00102DA64DB6C03F04E
:1015780001030093009B01A94FF0904001F0CAFDC0
:101588002046FFF7D8FF06B010BD7047054B8360B3
:10159800054B4360054B0360054BC360054B036176
:1015A80000207047000048420000904100007A4443
:1015B8000D093E00AB03050000207047024B9868F8
:1015C800C043024B1860704700280040A00100206B
:1015D800014B1868704700BFA0010020034B9B68AF
:1015E800DB43034A1068181A704700BF0028004000
:1015F800A0010020044B1B781BB1044B9868C04322
:1016080070470020704700BFA40100200028004058
:101618000320704708B501464FF47A720023800210
:10162800890DFFF797FA08BDC20E43011B1A62F134
:101638000002920042EA93729B001B1842F10000DC
:10164800C00040EA5370C3F3D51343EA8050704793
:1016580010B5074B0122DA65064C4FF4807120461D
:1016680002F0FCFD4FF0FF332363002010BD00BFE4
:10167800002800405C01002008B50246022102480B
:1016880003F031F808BD00BF5C01002038B50F4BEE
:101698001B780BB1002038BD0D4C4FF0FF3525638A
:1016A800FFF764FDFFF7D4FF4FF48071204602F086
:1016B800D5FD2563204602F0B5FF0020FFF7DCFFCB
:1016C800FFF77CFF014B01221A70E3E7A401002019
:1016D8005C01002008B502460021024803F003F827
:1016E80008BD00BF5C01002008B502460121024880
:1016F80002F0F9FF08BD00BF5C01002010B58CB0F6
:1017080004462C22002101A80FF0FEFCFFF7A0FFE1
:101718000C4B1B681C4400230893E4430294069373
:101728004FF0005307934FF480730B93012201A9E4
:10173800054802F0BBFE10B900200CB010BDFFF741
:10174800C2FCF9E7A00100205C01002008B50221D5
:10175800014802F0CFFF08BD5C01002038B50546FE
:10176800074B9C68E443FFF7F1FF2346A40A44EAC9
:101778008054C3F30900FFF757FF2880204638BD7F
:101788000028004008B50021014802F0B3FF08BD59
:101798005C01002008B50121014802F0ABFF08BD3B
:1017A8005C01002008B5FFF735FF054B9A6800E09B
:1017B80000BF034B9B68D31A9842F9D808BD00BFF5
:1017C8000028004008B50FF0F7FA08BD08B5FFF784
:1017D800BDFF0130FFF750FF08BD000008B51748EE
:1017E800174B03604FF4E133436000238360C36009
:1017F80003610C2242618361C361036243628362B5
:1018080004F079FA70B900210C4804F026FC60B99C
:1018180000210A4804F046FC50B9084804F0F9FBD6
:1018280048B908BDFFF74FFCEDE7FFF74CFCEFE7C1
:10183800FFF749FCF1E7FFF746FCF2E70802002052
:101848000038014030B597B004460021119112913B
:10185800139114911591382203A80FF055FC2268B2
:10186800294B9A4201D017B030BD0123039303F5E9
:101878004033049303A802F0D1FB00283ED14FF077
:10188800B0431A6E42F480421A661A6E02F480421D
:101898000292029ADA6C42F00202DA64DB6C03F01C
:1018A80002030193019BC023119302231293002585
:1018B8001395032314930723159311A9134801F0D3
:1018C80029FC1348134B03601223436010238360E1
:1018D800C5608023036145618561C561056201F0CA
:1018E80019FA70B90A4BA3679C62002202212420CE
:1018F80001F088F9242001F095F9B4E7FFF7E3FB3C
:10190800BDE7FFF7E0FBEDE70038014000040048C1
:10191800A80100205800024002680B4B9A4200D0F0
:10192800704710B504464FF0B042136E23F480435D
:101938001366C021054801F0BFFCA06F01F05AFAF8
:10194800242001F073F910BD00380140000400485C
:1019580008B5074B1860FFF795FBFFF73FFF054AEF
:10196800D2F8803043F00063C2F88030002008BD10
:101978009C0200200008005808B54FF0B0431A6CCC
:1019880042F480421A641A6C22F480421A640448B1
:10199800FFF7C2FF0F2001F049F9002008BD00BF82
:1019A8000802002008B50A460146024803F074FA06
:1019B800002008BD0802002010B582B0124B186044
:1019C8004FF40013009302AB13E906000F4804F02C
:1019D800C8FA0E4B1B68DA6912F4803FF9D1DA694C
:1019E80012F4800FFBD09A6842F480029A60074C88
:1019F800204604F0F7FA01220549204604F042FA8D
:101A0800002002B010BD00BF98020020080200208C
:101A1800A002002008B5074804F06DF920B906486F
:101A280001F078F918B908BDFFF74DFBF7E7FFF7A4
:101A38004AFBF8E708020020A801002008B5024B7D
:101A48001B680020984708BD9C02002010B504467A
:101A5800074B1B682BB1D0F88C2012B9012105481F
:101A6800984701220349204604F00CFA10BD00BF34
:101A780098020020A002002008B5FFF79DFC00F0A6
:101A8800A7F908BD08B54FF0FF300EF0F5FE08BD08
:101A98007047704700283CD010B584B004460378DE
:101AA8000BB904B010BD1B480FF026F91A4B0022E1
:101AB800114602200EF082FD237B94F9042094F94C
:101AC8001410039102920193A3680093134B002210
:101AD800114603200EF072FD114B0022114603201F
:101AE8000EF06CFDA378012B0CD1E37843B10D4BBC
:101AF80000930D4B0022114603200EF05FFDD0E746
:101B08000A4BF5E70A4B0022114603200EF056FD5A
:101B1800C7E77047D4020020181301084C130108C6
:101B2800801301080C130108901301081013010811
:101B3800A413010808B5002102200EF069FE02482E
:101B48000FF0DAF808BD00BFE403002008B5002153
:101B580001200EF05DFE08BD70B586B00C46054646
:101B680058B330480FF0C8F82F4B00221146022016
:101B78000EF024FD94F90C202B7894F9021094F9B6
:101B8800030094F904600596049003910293274B8F
:101B980053F822300193A3680093254B0022114685
:101BA80003200EF00BFD2B78022B1DD0032B02D146
:101BB8006B78012B04D006B070BD0029D1D1FAE7AB
:101BC8006B681B78012B07D0022B09D0002BF2D1B0
:101BD800002004F035FCEEE7012004F031FCEAE7D0
:101BE800022004F02DFCE6E76B78012BE3D16B684B
:101BF8001B7803F001030F4A13704BB90E4B0022F8
:101C0800114603200EF0DAFC002000F00BFAD2E7B0
:101C18000A4B0022114603200EF0D0FC002000F0F1
:101C2800F7F9C8E7BC020020B4130108081A010834
:101C3800E8130108EC020020301401083C140108E4
:101C480040B310B5044690F90130E3B912480EF0DC
:101C5800F9FF002000F0E6F9104B0022114602209F
:101C68000EF0ACFCA378012B06D00D4B00221146D8
:101C780002200EF0A3FC0CE00A4B002211460220C1
:101C88000EF09CFC05E0084B0022114602200EF0E5
:101C980095FC10BD704700BFA4020020481401083D
:101CA8008014010860140108A0140108F0B58BB075
:101CB8000023039304A8FFF769FCFFF793F940F3A7
:101CC8000F2638490498FEF7D5FD3749FEF786FEFA
:101CD800FEF720FF85B2354C02232370324906985F
:101CE800FEF7C8FDFEF716FF6368314A12781A70CE
:101CF80063682A0A5A7063689D706368DE70636857
:101D0800C0F307221A71636858712A4B1B78082B95
:101D180002D0012B00D0ABB9244A516800238B7143
:101D28005168CB715268137253720A231F4843706B
:101D3800002303AA194604F02FFCF8B1039B23BB28
:101D48000BB0F0BD079D089C184E7768FFF75AFB4B
:101D5800B8717368C5F30742DA717368C5F307226F
:101D68001A725D72C4F307429A72C4F30722DA72D8
:101D78001C7300225A739A730F23D7E70E4B012264
:101D8800002110460EF01AFCDAE70C4AA2FB0323E6
:101D98009B0900930A4B0122002110460EF00EFC0D
:101DA800CEE700BF0000C84200002041000000202C
:101DB800EC02002008000020BC140108D34D62107A
:101DC800CC14010808B5002000F036F908BD000061
:101DD8002DE9F04385B0002000F0F2F800240294C9
:101DE800012501950095394B2246214602200EF027
:101DF800E5FB02940323019302260096344B224606
:101E0800214630460EF0DAFB029401950095314BDD
:101E18002246214630460EF0D1FBDFF8BC900094F4
:101E28002E4B22464FF0FF3148460EF0ADFEDFF84C
:101E3800B08000942B4B22464FF0FF3140460EF005
:101E4800A3FE294F0094294B2A464FF0FF3138460C
:101E58000EF09AFE4FF4FA7148460EF093FF4FF4D5
:101E6800FA7140460EF08EFF4FF4FA7138460EF0C4
:101E780089FF1F4A214628460EF086FD1D4A214645
:101E880030460EF081FD00F049F81B4804F03EFD95
:101E98001A4804F0E3F938460EF02EFF284604F0FD
:101EA80031FB174D0094174B22464FF0FF3128465F
:101EB8000EF06AFE43F6982128460EF063FF284686
:101EC8000EF01AFF05B0BDE8F08300BFEC1401085E
:101ED8000C1501082C150108D4020020991A0008D5
:101EE800BC0200209B1A0008A4020020CD1D000897
:101EF80015640008B51C0008180000200800002020
:101F0800E40300203D1B0008B0F5005F00D07047D7
:101F180008B5002102200EF07BFC08BD064B00220C
:101F28001A605A609A60DA6020225A604FF4907200
:101F38005A6003221A607047FC030020004870476B
:101F4800FC03002008B500F081F808BD08B500F0D2
:101F5800B1F808BD08B500F0E9F808BD08B500F00B
:101F6800E7F808BD08B500F0E5F808BD0D48854656
:101F780000F0E2F80C480D490D4A002302E0D4585D
:101F8800C4500433C4188C42F9D30A4A0A4C0023BB
:101F980001E013600432A242FBD30FF0BDF8FFF753
:101FA800DAF8FEE70080002000000020DC000020B6
:101FB8000C200108DC000020641A0020FEE7000065
:101FC800F0B587B000240194029403940494059416
:101FD8004FF0B043DA6C42F00202DA64DB6C03F0D3
:101FE80002030093009B20260196012702970223F3
:101FF8000493064D01A9284601F08CF83A4631466B
:10200800284601F0D7F9204607B0F0BD0004004883
:1020180008B500222021024801F0CCF9002008BDB3
:102028000004004808B501222021024801F0C2F945
:10203800002008BD0004004808B52021024801F02E
:10204800BEF9002008BD00BF0004004870B586B086
:102058000024019402940394049405944FF0B0432F
:10206800DA6C42F00102DA64DB6C03F001030093DE
:10207800009B10250195012302930323049301A9D2
:102088004FF0904001F046F82026019601A94FF044
:10209800904001F03FF8224631464FF0904001F061
:1020A80089F9224629464FF0904001F083F92046ED
:1020B80006B070BD08B503280FD8DFE800F002109D
:1020C8001D2A002210214FF0904001F073F90022E0
:1020D80020214FF0904001F06DF9002008BD012249
:1020E80010214FF0904001F065F9002220214FF0B7
:1020F800904001F05FF9F0E7012210214FF0904085
:1021080001F058F9012220214FF0904001F052F9D6
:10211800E3E7002210214FF0904001F04BF9012233
:1021280020214FF0904001F045F9D6E70220704792
:1021380001207047012070477047000010B5032048
:1021480000F04EFD01F0DCFA064B18600F20FFF797
:10215800E3F910B10124204610BD0446FFF7A4F8A6
:10216800F9E700BF4C000020034B1B78034A1168B5
:102178000B441360704700BF500000200C0400207F
:102188004FF0E022136923F00203136170474FF008
:10219800E022136943F0020313617047014BD3F83F
:1021A800900570470070FF1F014BD3F894057047E6
:1021B8000070FF1F014BD3F8980570470070FF1F90
:1021C800024A536823F0010353607047002004E07B
:1021D800024A536823F0020353607047002004E06A
:1021E800024A536823F0040353607047002004E058
:1021F80070B582B000230193002800F028810446BE
:10220800836DBBB12268936813F0805F1FD1936818
:1022180023F0104323F0170343F0805393608D4B52
:102228001B689B098C4AA2FB03239B0901335B00B3
:10223800019309E0FEF750FE0023E36584F854306B
:10224800E0E7019B013B0193019B002BF9D1226838
:10225800936813F0805F4BD1A36D43F01003A3651F
:10226800E36D43F00103E3650120936813F0040371
:1022780000D00123A16D11F0100F40F0E180002B78
:1022880040F0DE80A16D21F4817141F00201A16569
:10229800916811F0010F38D1D16821F01801A568B3
:1022A8002943D160626802F04042E16C42EA010CC5
:1022B80094F83C1001291DD021680D69674A2A400D
:1022C80042EA0C020A616268B2F1404F1ED0B2F1D4
:1022D800804F1BD0B2F1004F18D0614DD5F80817C8
:1022E80021F4701102F470120A43C5F808270DE0B2
:1022F8000020BAE7216C0A43616C0A43A16C0A43C7
:102308004CEA020242F0010CD6E79C46217E627E2E
:10231800D20342EA8132A57E42EA4532216B09B1F5
:102328004FF480510A43E1680A432169002949DBD7
:102338004FF400110A4394F82C1042EA410294F831
:102348002010012941D0616A21B101F4E071A56A28
:1023580029430A432568E96821F4FE3121F4F37121
:102368001143E96025682E693E49314041EA0C0174
:1023780029612668616B756925F0070C41EA0C0133
:1023880071612568A66B696921F0700141EA06113F
:102398006961216931BB21688B6A63F00F038B6225
:1023A8002368D968304B0B40934240D0A36D23F08B
:1023B800120343F01003A365E36D43F00103E365E3
:1023C800012042E021F00041B4E715B942F480321F
:1023D800B9E7A16D41F02001A165E16D41F001016E
:1023E800E165B0E7B1F5001FDAD1072B08D8216EF7
:1023F8009D00E94001F00F010F2901D00133F4E7F6
:10240800012B0ED02568AB6AE369013B9B0003F002
:102418001C036FF00F0101FA03F3216E0B43AB624B
:10242800BEE721688B6A63F00F038B62B8E700236D
:10243800E365A36D23F0030343F00103A36504E000
:10244800A36D43F01003A365012002B070BD012005
:10245800FBE700BF4C000020632D3E0502FCFF1F78
:102468000020014002FCFFDFE7FF3F83F8B5044688
:102478000D464669082E05D00368DB6813F0010F86
:102488001ED10426FFF74AF8074623681A68324225
:102498001CD1B5F1FF3FF8D0FFF740F8C31BAB42A2
:1024A80001D8002DF1D123681B683342EDD1A36D0B
:1024B80043F00403A365002384F85430032028E084
:1024C800836D43F020038365012022E0A26D42F46E
:1024D8000072A265DA6812F4406F15D1A27E9AB92B
:1024E8001A6812F0080F0FD09A6812F0040F11D171
:1024F8005A6822F00C025A60A36D23F4807323F00B
:10250800010343F00103A365207E60B923680C2210
:102518001A60F8BDA36D43F02003A365E36D43F093
:102528000103E365F0E70020F3E70368186C7047E0
:1025380070B483B000220192046990F85420012AF3
:1025480000F003810346012280F854200268906855
:1025580010F0040F0AD09A6D42F020029A6501200B
:10256800002283F8542003B070BC704748680228E2
:1025780000F09C80B4F1004F27D0754DAC4224D0B8
:102588001C6E00F01F000F25854024EA05050C6825
:10259800C4F31106002E31D1C4F3846484402C4363
:1025A8001C664C68A0080130DD69A84213D80D6884
:1025B800906A04F01F040F26A64020EA0600C5F31F
:1025C8008365A5402843906205E00C68906AC4F3CF
:1025D8001104204390621C680D688A68606920EACB
:1025E800052002EA052222F07C4222F0FF02024383
:1025F80062610A68002A09DB0020B1E794FAA4F4B2
:1026080014B1B4FA84F4C9E72024C7E75149D1F8D2
:10261800080700F0E071504CA24207D04F4CA2428C
:1026280026D04F4CA24232D0002099E710F4000F78
:10263800F4D141F400014748D0F8082722F0E072AD
:102648001143C0F80817474A126892094649A1FB86
:1026580002129209013202EB42029200019202E058
:10266800019A013A0192019A002AF9D1002077E7EC
:1026780010F0807FD5D141F080713648D0F8082716
:1026880022F0E0721143C0F80817002068E710F440
:10269800800F58D141F480022E48D0F8081721F055
:1026A800E0710A43C0F80827002059E7B4F1004F49
:1026B80002D02748844206D10C68906AC4F31104FA
:1026C80020EA040090620A68002A01DB002047E73C
:1026D8002049D1F808172048824207D01F48824273
:1026E80013D01F4882421FD0002039E701F0A071A3
:1026F80000F1104000F58830D0F8082722F0E07289
:102708001143C0F8081700202AE701F4400200F13D
:10271800084000F56040D0F8081721F0E0710A433E
:10272800C0F8082700201BE701F0C07200F10C4038
:1027380000F58030D0F8081721F0E0710A43C0F89E
:10274800082700200CE700200AE702200BE700BF5B
:102758000400008000200140001000B0004000B8D4
:10276800002000B44C000020632D3E0538B50368F6
:102778009A6812F0040F2AD004469A6812F0020FE1
:1027880007D19A6822F0004222F0170242F01002A4
:102798009A60FEF7C3FE054623689B6813F0040F92
:1027A80013D0FEF7BBFE431B022BF5D923689B68A9
:1027B80013F0040FF0D0A36D43F01003A365E36D8D
:1027C80043F00103E365012002E0002000E000205F
:1027D80038BD000030B583B00023019303689A68C0
:1027E80012F0010F5BD1044699682E4A114217D1A5
:1027F8009A6822F0004222F0170242F001029A6021
:10280800294BD3F8083713F4000F19D0274B1B684E
:102818009B09274AA2FB03239B09013301930CE080
:10282800836D43F010038365C36D43F00103C365F3
:10283800012035E0019B013B0193019B002BF9D15D
:10284800637E012B01D100202AE0FEF767FE0546D2
:1028580023681A6812F0010F1FD19A6812F0010F4D
:1028680007D19A6822F0004222F0170242F00102D2
:102878009A60FEF753FE401B0228E9D923681B68BB
:1028880013F0010FE4D1A36D43F01003A365E36DCA
:1028980043F00103E365012002E0002000E000208E
:1028A80003B030BD17000080002001404C0000201C
:1028B800632D3E0503689B6813F0040F28D110B5FB
:1028C800044690F85430012B24D0012380F854306A
:1028D800FFF780FFC0B9A36D23F4706323F00103F1
:1028E80043F48073A3650023E36522681C2111600B
:1028F80084F854302268936823F0004323F01703C8
:1029080043F00403936010BD002384F85430FAE7C1
:10291800022070470220F6E738B50446026893683B
:1029280013F0020300D00123916811F0010F39D090
:10293800002B39D1936803F00503012B09D0A36D4F
:1029480043F01003A365E36D43F00103E365012041
:1029580029E0936823F0004323F0170343F00203B0
:102968009360236803221A60FEF7D8FD05462368A2
:102978009B6813F0010F13D0FEF7D0FD401B02280F
:10298800F5D923689B6813F0010FF0D0A36D43F0CD
:102998001003A365E36D43F00103E365012002E042
:1029A800002000E0002038BD0020FCE770B50028BA
:1029B8004CD00446836D43F002038365FFF7D6FECF
:1029C8000646002833D02268536823F4677323F03F
:1029D80003035360236840F29F321A602268D1686B
:1029E8001B4B0B40D3602268136923F040431361EB
:1029F8002268536923F0070353612268136A03F0BE
:102A0800F023136223689A6A00259D62114AD2F85E
:102A1800083723F0FE73C2F808372046FEF772FA2B
:102A28002566E565A56584F85450304670BD204696
:102A3800FFF772FF064608B90123A3652268936869
:102A480023F0104323F017039360BCE70126ECE75B
:102A580000023E830020014090F85430012B19D029
:102A680010B50446012380F85430FFF77FFE18B1F3
:102A7800002384F8543010BD2046FFF74DFF00288E
:102A8800F6D1A36D23F4807323F0010343F001030F
:102A9800A365EDE70220704710B582B000230193CB
:102AA80090F85430012B45D00446012380F8543067
:102AB800FFF732FF23689A6812F0010F08D0A36D60
:102AC80043F01003A365002384F8543002B010BD0E
:102AD800A26D22F4817242F00202A265D96801F067
:102AE8000301DA6822F00302DA602268936843F08F
:102AF8000043936023689A68002A09DBDA680A436E
:102B0800DA60A36D23F0030343F00103A365DAE75A
:102B1800019B01330193019BB3F52E3FEAD3A36DCB
:102B280023F0120343F01003A365002384F8543004
:102B38000120CBE70220C9E7002807DB00F01F02CD
:102B4800400901239340024A42F82030704700BFF1
:102B580000E100E000280CDB00F01F02400901231F
:102B680093402030034A42F82030BFF34F8FBFF321
:102B78006F8F704700E100E0002808DB0901C9B247
:102B880000F1604000F5614080F80013704700F0E4
:102B98000F000901C9B2014B1954704714ED00E048
:102BA80000B500F00700C0F1070CBCF1040F28BF06
:102BB8004FF0040C031D062B0FD9C31E4FF0FF3E28
:102BC8000EFA0CF021EA000199400EFA03FE22EAFF
:102BD8000E0241EA02005DF804FB0023EEE7000064
:102BE800074AD36823F4E0631B041B0C000200F4BB
:102BF800E060034343F0BF6343F40033D36070479E
:102C080000ED00E010B50446054BD868C0F302207B
:102C1800FFF7C6FF01462046FFF7AEFF10BD00BF15
:102C280000ED00E008B5FFF787FF08BD08B5FFF71E
:102C380091FF08BD10B4C46CD0F850C0C4F804C0EB
:102C4800446D24B1846DD0F85CC0C4F804C0446CF1
:102C580004F01C0C012404FA0CF4D0F840C0CCF8A1
:102C68000440046863608368102B05D0036899608A
:102C78000368DA6010BC704703689A600368D9601B
:102C8800F8E700000368144A934216D8426C22F011
:102C9800030202F1804202F502328264DBB2083B91
:102CA8000E4AA2FB03231B090D4AC26403F01F034B
:102CB800012202FA03F303657047426C22F0030114
:102CC800084A0A448264DBB2083B044AA2FB032395
:102CD8001B090733E8E700BF07040240CDCCCCCC82
:102CE800800802401C080240436803F07F03074A3B
:102CF8001A4492004265064A8265013B03F00303C9
:102D0800012202FA03F3C365704700BF3F82001037
:102D18004009024000285ED010B5044603682F4AD7
:102D2800934240D82E4A1A442E49A1FB0212120996
:102D3800920042642C4A0264022284F825201A6810
:102D48006FF30E121A6021680A68A368E0680343EB
:102D58002069034360690343A0690343E0690343AF
:102D6800206A034313430B602046FFF78BFFA368D9
:102D7800B3F5804F22D06368A26C03F07F03136021
:102D8800E36C226D5A606368013B032B19D9002359
:102D98006365A365E3650020E063012384F82530BB
:102DA80084F8240010BD114A1A440E49A1FB0212EE
:102DB8001209920042640E4A0264BDE70023636070
:102DC800D9E72046FFF790FF636D00221A60A36DD4
:102DD800E26D5A60DFE70120704700BF0704024038
:102DE800F8FFFDBFCDCCCCCC00000240F8FBFDBF06
:102DF8000004024000284BD038B504460268136826
:102E080023F0010313600268224B9A422CD8224B0C
:102E180013442249A1FB03131B099B004364204B65
:102E2800036400251560636C03F01C02216C012308
:102E380093404B602046FFF725FFA36C1D60E36CB1
:102E4800226D5A606368013B032B18D90020606526
:102E5800A065E065E06220636063A063E06384F8D6
:102E6800250084F8240038BD0E4B13440B49A1FB00
:102E780003131B099B0043640B4B0364D1E72046F3
:102E8800FFF732FF636D1D60A36DE26D5A60DDE7E9
:102E98000120704707040240F8FFFDBFCDCCCCCC21
:102EA80000000240F8FBFDBF0004024038B50446AC
:102EB80090F82400012843D0012084F8240094F8D5
:102EC8002500C0B2012806D08023E363002384F8DC
:102ED8002430012038BD022084F825000020E0635A
:102EE8002568286820F0010028602046FFF7A2FE28
:102EF800236BD3B12268136843F00E031360A36CED
:102F08001A6812F4803F03D01A6842F480721A607B
:102F1800636D1BB11A6842F480721A6022681368E4
:102F280043F0010313600020D4E72268136823F0FC
:102F3800040313602268136843F00A031360DEE792
:102F48000220C7E70346002834D090F82520D2B2E3
:102F5800022A06D00422C263002280F8242001201D
:102F6800704701680A6822F00E020A60816C0A68DC
:102F780022F480720A6001680A6822F001020A607D
:102F8800426C02F01C01006C01228A404260DA6C3B
:102F9800196D51605A6D32B1116821F48071116058
:102FA8009A6DD96D5160012283F82520002083F89D
:102FB800240070470120704708B590F82530DBB22F
:102FC800022B03D00423C363012008BD02681368E1
:102FD80023F00E0313600268136823F001031360E3
:102FE800826C136823F480731360436C03F01C0233
:102FF800016C012393404B60C36C026D5A60436DB2
:1030080033B11A6822F480721A60836DC26D5A60F7
:10301800012380F82530002380F82430836B13B116
:1030280098470020D1E70020CFE7000038B5036CAF
:10303800196804682568436C03F01C0304229A404D
:103048000A4215D015F0040F12D0236813F0200F90
:1030580003D1236823F004032360436C03F01C02AC
:10306800016C042393404B60036B03B1984738BD50
:1030780002229A400A4228D015F0020F25D0236870
:1030880013F0200F06D1236823F00A0323600123DD
:1030980080F8253002681C4B9A420ED9436C03F025
:1030A8001C0202239340194A5360002380F82430FD
:1030B800C36A002BDBD09847D9E7436C03F01C02A6
:1030C80002239340124A5360EFE7082202FA03F3FF
:1030D8000B42CCD015F0080FC9D0236823F00E039B
:1030E8002360436C03F01C03016C012202FA03F312
:1030F8004B60C26380F82520002380F82430436B9E
:10310800002BB4D09847B2E7800002400004024088
:103118000000024070B5002369E085685E00032462
:10312800B44025EA0405CC68B4402C438460456863
:1031380025EA0C054C68C4F300149C402C434460F9
:1031480066E0DD08083550F8254003F0070C4FEA23
:103158008C0C4FF00F0E0EFA0CFE24EA0E0E0C69C2
:1031680004FA0CF444EA0E0440F8254067E002240F
:1031780000E0002404FA0EF42C430CF1020C4B4D31
:1031880045F82C404A4CD4F88050D44325EA02062E
:10319800D1F804C01CF4803F01D042EA0506444D32
:1031A800C5F88060D5F8845004EA0506D1F804C053
:1031B8001CF4003F01D042EA05063D4DC5F8846085
:1031C8002D6804EA0506D1F804C01CF4801F01D05C
:1031D80042EA0506364D2E606D682C404E6816F49E
:1031E800001F01D042EA0504314A546001330A68DD
:1031F80032FA03F458D04FF0010C0CFA03FC1CEA25
:103208000202F3D04C6804F00304013C012C84D979
:103218004C6804F00304032C0CD0C4685D004FF024
:10322800030C0CFA05FC24EA0C0C8C68AC4044EA4C
:103238000C04C4604C6804F00304022C81D00468B8
:103248004FEA430E4FF0030C0CFA0EFC24EA0C0C68
:103258004C6804F0030404FA0EF444EA0C04046015
:103268004C6814F4403FC1D04FEA930C0CF10205AE
:103278000E4C54F8255003F0030E4FEA8E0E072427
:1032880004FA0EF425EA0405B0F1904F3FF471AF4B
:10329800084CA04206D004F58064A0423FF467AF12
:1032A800072467E7012465E770BD00BF00000140FF
:1032B8000008005800040048002331FA03F271D0D6
:1032C800F0B52EE0022500E0002505FA0CF5A54230
:1032D80049D004685D004FF0030C0CFA05FC44EA81
:1032E8000C0404604FEAD30E0EF1080E50F82E407D
:1032F80003F00706B6000F25B54024EA050440F898
:103308002E40846824EA0C048460446824EA02029B
:103318004260C26822EA0C02C260013331FA03F249
:103328003FD001229A4012EA0107F6D09E08B51C48
:103338001D4C54F8254003F0030C4FEA8C0C4FF059
:10334800070E0EFA0CFE0EEA0404B0F1904FBBD043
:10335800164DA84205D005F58065A842B2D00725CC
:10336800B3E70125B1E7124CD4F8805025EA0705E8
:10337800C4F88050D4F8845025EA0705C4F884506E
:10338800256825EA07052560656825EA070565605B
:10339800054D023655F8264024EA0E0445F8264025
:1033A80097E7F0BD704700BF0000014000040048E7
:1033B800000800580AB1816170478162704743690B
:1033C80001EA030221EA030141EA024181617047EF
:1033D80008B5054BDB68034200D108BD024BD86035
:1033E800FEF792FDF9E700BF00080058024A13688B
:1033F80043F48073136070470004005810B50C46FE
:10340800A0B90F4B5B6913F4007F0AD10D4A136909
:1034180023F004031361012C10D040BF20BF20BF4C
:1034280010BD00F021F80028F0D0F9E7044B5B69E3
:1034380013F4007FEAD100F00FF8E7E730BFEFE7B9
:103448000004005800ED00E0024B186800F4C0606A
:10345800704700BF00040058024A136843F48043D1
:1034680013607047000400580F4A136823F4804320
:1034780013600E4B1B68322202FB03F30C4AA2FBBB
:1034880003239B0C00E0013B074A526912F4007FBA
:1034980001D0002BF7D1044B5B6913F4007F01D1F5
:1034A8000020704703207047000400584C0000209B
:1034B80083DE1B430C4A136823F0070343F002031F
:1034C80013600A4A136943F004031361012808D002
:1034D80040BF20BF20BF054A136923F004031361CE
:1034E800704730BFF7E700BF0004005800ED00E068
:1034F80030B589B004468C462A4B93E80300069001
:10350800ADF81C1003F1080292E803000490ADF82E
:10351800141001AD103393E8070085E80700BCF5E7
:10352800007F07D0002314E008AA02EB830353F8B6
:103538001C5C1EE00023022B08D808AA02EB4302F9
:1035480032F8082CA242EFD20133F4E7002510E04C
:103558000133022B0CD808AA02EB430232F8102CD4
:10356800A242F5D308AA02EB830353F81C5C00E0DF
:1035780000250D4A136823F007032B431360FDF75A
:10358800CDFF0446084B1B6803F00703AB4206D087
:10359800FDF7C4FF001B0228F4D9032000E0002037
:1035A80009B030BD801201080040005810B5C0F3C2
:1035B80003100C4B53F820404FF0B043D3F80831B8
:1035C80003F00F03084A52F82330B4FBF3F4FFF773
:1035D8003BFF0146054BA3FB0434A00CFFF788FF13
:1035E80010BD00BF201A0108801A010883DE1B43A2
:1035F8004FF0B0439968DB6803F0030311F00C0146
:103608000AD00C2906D0042947D008293BD000222B
:10361800104626E0012BF6D14FF0B0431B6813F09B
:1036280008030DD04FF0B0431B6813F0080324D1F2
:103638004FF0B042D2F894202E4A52F823200EE0E0
:103648004FF0B042126812F0080F12D14FF0B04399
:10365800D3F89430C3F30323264A52F82320D1B178
:1036680000204FF0B0439B6803F00C030C2B1AD0DA
:1036780070474FF0B0421268EEE74FF0B0431B6856
:10368800C3F30313D8E74FF0B0431A6812F480125B
:1036980006D11948E5E71046E3E700221748E0E7B6
:1036A80000221648DDE74FF0B043DB6803F0030360
:1036B800022B09D0032B08D14FF0B0431B6813F439
:1036C800801F15D10C4A00E00C4A4FF0B041CB687E
:1036D800C3F3062303FB02F2CB68C3F302130133DF
:1036E800B2FBF3F2C868400F0130B2FBF0F0BFE75D
:1036F800024AEAE7201A01080048E8010024F40019
:1037080008B5FFF775FF4FF0B0439B68C3F3031389
:10371800024A52F82330B0FBF3F008BD801A0108C2
:10372800002800F01983F8B504464FF0B0439D68AF
:1037380005F00C05DE6806F00306036813F0200F99
:1037480000F08F80EDB10C2D19D0236A002B00F00A
:10375800BC804FF0B042136843F001031360FDF7DB
:10376800DDFE07464FF0B0431B6813F0020F65D12A
:10377800FDF7D4FEC01B0228F4D90320F9E2012E7C
:10378800E3D14FF0B0431B6813F0020F03D0236A54
:10379800002B00F0E382A06A4FF0B0431B6813F0DF
:1037A800080F29D04FF0B0431B6803F0F00398428C
:1037B8002AD9FFF7FBFE002840F0D2824FF0B04331
:1037C8001A6842F008021A601A6822F0F002A16A28
:1037D8000A431A60616A5A6822F47F4242EA012267
:1037E8005A60FFF78DFFB04B1860B04B1868FDF7B3
:1037F80093FE002835D0BCE24FF0B043D3F89430A4
:103808001B0903F0F003D2E74FF0B0431A6842F007
:1038180008021A601A6822F0F002A16A0A431A60C4
:10382800616A5A6822F47F4242EA01225A60A06A19
:10383800FFF7BCFE0028D4D001209AE24FF0B04335
:103848001A6842F008021A601A6822F0F002A16AA7
:103858000A431A60616A5A6822F47F4242EA0122E6
:103868005A60236813F0010F51D0082D45D00C2D54
:1038780041D04FF0B042136823F48013A1680B4382
:1038880013606368B3F5803F63D0B3F5041F65D058
:103898004FF0B0431A6822F480321A601A6822F492
:1038A80000121A606368002B63D0FDF737FE0746E5
:1038B8004FF0B0431B6813F4003F28D1FDF72EFEEC
:1038C800C01B6428F4D9032053E24FF0B0421368B8
:1038D80023F001031360FDF721FE07464FF0B043C4
:1038E8001B6813F0020FBCD0FDF718FEC01B02289E
:1038F800F4D903203DE2032EBBD14FF0B0431B683F
:1039080013F4003F03D06368002B00F02B82236878
:1039180013F0020F52D0042D3DD00C2D39D023695D
:10392800002B00F091804FF0B042136843F480738D
:103938001360FDF7F3FD06464FF0B0431B6813F420
:10394800806F77D1FDF7EAFD801B0228F4D90320A8
:103958000FE2136843F480331360A3E74FF0B043DA
:103968001A6842F400121A601A6842F480321A6027
:1039780098E7FDF7D3FD07464FF0B0431B6813F4F3
:10398800003FC4D0FDF7CAFDC01B6428F4D903204A
:10399800EFE1022EC3D14FF0B0431B6813F4806FE0
:1039A80003D02369002B00F0DF8161694FF0B0423A
:1039B800536823F0FE4343EA01635360236813F01E
:1039C800080F00F08E80A369002B71D04FF0B04330
:1039D800D3F89430E16903F01002914211D003F05A
:1039E8000302022A00F0C28113F0010F42D14FF006
:1039F800B042D2F8943023F01003E1690B43C2F8C7
:103A080094304FF0B042D2F8943043F00103C2F83A
:103A18009430FDF783FD06464FF0B043D3F8943059
:103A280013F0020F5DD1FDF779FD801B1128F3D942
:103A380003209EE161694FF0B042536823F0FE43D2
:103A480043EA01635360B9E74FF0B042136823F4C7
:103A580080731360FDF762FD06464FF0B0431B68A4
:103A680013F4806FAAD0FDF759FD801B0228F4D902
:103A780003207EE14FF0B042D2F8943023F00103E6
:103A8800C2F89430FDF74AFD06464FF0B043D3F82C
:103A9800943013F0020FAAD0FDF740FD801B1128C7
:103AA800F3D9032065E100BF4C000020540000203A
:103AB8004FF0B042D2F8943023F00103C2F89430AA
:103AC800FDF72CFD06464FF0B043D3F8943013F0C1
:103AD800020F06D0FDF722FD801B1128F3D9032021
:103AE80047E1236813F0040F00F0B180A84B1B686E
:103AF80013F4807F10D1FFF779FCFDF70FFD064620
:103B0800A34B1B6813F4807F06D1FDF707FD801BCC
:103B18000228F5D903202CE1E368002B61D0852B1E
:103B280001D0052B07D14FF0B042D2F8903043F0C6
:103B38000403C2F89030FDF7F1FC06464FF0B0429E
:103B4800D2F8903043F00103C2F890304FF0B04300
:103B5800D3F8903013F0020F08D1FDF7DFFC801B7B
:103B680041F288339842F1D9032002E1E368812BBE
:103B780001D0852B1AD1FDF7D1FC06464FF0B04293
:103B8800D2F8903043F08003C2F890304FF0B04341
:103B9800D3F8903013F4006F59D1FDF7BFFC801BA8
:103BA80041F288339842F1D90320E2E0FDF7B6FCF0
:103BB80006464FF0B042D2F8903023F08003C2F8A6
:103BC80090304FF0B043D3F8903013F4006F3ED0EC
:103BD800FDF7A4FC801B41F288339842F1D90320F9
:103BE800C7E0FDF79BFC06464FF0B042D2F8903094
:103BF80023F08003C2F890304FF0B043D3F89030F0
:103C080013F4006F08D0FDF789FC801B41F288335C
:103C18009842F1D90320ACE0FDF780FC06464FF04E
:103C2800B042D2F8903023F00103C2F890304FF040
:103C3800B043D3F8903013F0020F08D0FDF76EFCB4
:103C4800801B41F288339842F1D9032091E0E36A5E
:103C5800002B00F08D800C2D62D0022B1FD04FF06E
:103C6800B0431A6822F080721A60DA6822F0030200
:103C7800DA60DA6822F0885222F48032DA60FDF7DE
:103C88004DFC04464FF0B0431B6813F0007F73D01F
:103C9800FDF744FC001B0A28F4D9032069E04FF023
:103CA800B042136823F080731360FDF737FC0546B4
:103CB8004FF0B0431B6813F0007F2AD14FF0B04299
:103CC800D36834491940236B606B0343A06B43EA04
:103CD8000023E06B0343206C0343606C03431943E8
:103CE800D160136843F080731360D36843F0805346
:103CF800D360FDF713FC04464FF0B0431B6813F084
:103D0800007F37D1FDF70AFC001B0A28F4D90320ED
:103D18002FE0FDF703FC401B0A28C9D9032028E03F
:103D2800012B2BD04FF0B043DB6803F00301226B6B
:103D3800914225D103F07002616B8A4222D103F4CB
:103D4800FE42A16BB2EB012F1ED103F06043626CFF
:103D580093421BD100200CE001207047012008E0AD
:103D6800012006E0012004E0012002E0012000E03B
:103D78000020F8BD0020FCE70020FAE70120F8E762
:103D88000120F6E70120F4E70120F2E70120F0E73F
:103D9800000400588C80C111002800F0048170B51F
:103DA8000C460546824B1B6803F007038B4227D35A
:103DB8002B6813F0020F39D12B6813F0400F4DD147
:103DC8002B6813F0040F65D12B6813F0080F79D115
:103DD8002B6813F0010F00F0C1806B68022B00F014
:103DE8008B80032B00F09080002B40F095804FF0E3
:103DF800B042126812F0020F40F094800120D1E026
:103E08006B4A136823F007030B431360FDF786FB27
:103E18000646674B1B6803F00703A342C8D0FDF7AB
:103E28007DFB801B0228F4D90320BBE0AB684FF070
:103E3800B0418A6822F0F00213438B60FDF76EFBF5
:103E480006464FF0B0439B6813F4803FB4D1FDF7AA
:103E580065FB801B0228F4D90320A3E069694FF0B1
:103E6800B042D2F8083123F00F0343EA1113C2F825
:103E78000831FDF753FB06464FF0B043D3F808313D
:103E880013F4803F9CD1FDF749FB801B0228F3D92E
:103E9800032087E0EB684FF0B0418A6822F4E062C3
:103EA80013438B60FDF73AFB06464FF0B0439B681F
:103EB80013F4003F88D1FDF731FB801B0228F4D9A9
:103EC80003206FE029694FF0B042936823F46053F0
:103ED80043EAC1039360FDF721FB06464FF0B04368
:103EE8009B6813F4802F7FF473AFFDF717FB801BDB
:103EF8000228F3D9032055E04FF0B042126812F4BB
:103F0800003F0FD101204DE04FF0B042126812F08F
:103F1800007F07D1012045E04FF0B042126812F44B
:103F2800806F42D04FF0B0418A6822F003021343F9
:103F38008B60FDF7F3FA06464FF0B0439B6803F039
:103F48000C036A68B3EB820F08D0FDF7E7FA801B11
:103F580041F288339842EFD9032023E0144B1B68C1
:103F680003F00703A34215D9114A136823F0070386
:103F780023431360FDF7D2FA05460D4B1B6803F087
:103F88000703A34206D0FDF7C9FA401B0228F4D95B
:103F9800032007E0FFF7B4FB064B1860064B1868D0
:103FA800FDF7BAFA70BD012070470120FAE700BF9B
:103FB800004000584C0000205400002008B5FFF7CE
:103FC8009FFB4FF0B0439B68C3F30223024A52F8A9
:103FD8002330D84008BD00BF601A010808B5FFF7B4
:103FE8008FFB4FF0B0439B68C3F3C223024A52F8D9
:103FF8002330D84008BD00BF601A01084FF0B04117
:10400800D1F88830020902F47F2223EA0203000172
:1040180000F47F200343C1F88830704770B5044628
:10402800036813F4803F40F0AA800025236813F04A
:10403800010F0AD062684FF0B041D1F8883023EA06
:10404800124392B21343C1F88830236813F0020F69
:104058000AD0A2684FF0B041D1F8883023EA124361
:1040680092B21343C1F88830236813F0200F09D0A7
:1040780023694FF0B041D1F8882022F440621343FD
:10408800C1F88830236813F4007F0CD0216A4FF000
:10409800B042D2F88830080C000423EA000343EA4F
:1040A8000143C2F88830236813F4806F0CD0616A2A
:1040B8004FF0B042D2F88830080C000423EA00031D
:1040C80043EA0143C2F88830236813F4006F0CD028
:1040D800A16A4FF0B042D2F88830080C000423EAF5
:1040E800000343EA0143C2F88830236813F0400F05
:1040F80040F09B80236813F0800F40F09A8023687B
:1041080013F4807F40F09980236813F0100F0ED0CD
:10411800E3684FF0B041D1F8882022F4407213438D
:10412800C1F88830E368B3F5807F00F08A8023689F
:1041380013F4004F0FD0236B4FF0B041D1F8882013
:1041480022F040421343C1F88830236B1BB9CB6877
:1041580043F08073CB60236813F4804F0DD0E36A7B
:104168004FF0B041D1F8882022F040521343C1F8F3
:104178008830E36AB3F1005F68D0284670BDFFF766
:1041880035F9FDF7CBF90546334B1B6813F4807FEF
:1041980006D1FDF7C3F9401B0228F5D9032500E035
:1041A8000025002D7FF442AF4FF0B043D3F8903094
:1041B80003F44073626B9A4216D04FF0B043D3F8C1
:1041C800901021F44070D3F8902042F48032C3F864
:1041D8009020D3F8902022F48032C3F89020C3F8BE
:1041E800900011F0020F0DD1002D7FF41FAF636B0B
:1041F8004FF0B041D1F8902022F440721343C1F837
:10420800903013E7FDF78AF906464FF0B043D3F82C
:10421800903013F0020FE7D1FDF780F9831B41F2CC
:1042280088329342F1D90325DEE76069FFF7E6FE9D
:1042380060E7A069FFF7E2FE61E7E069FFF7DEFEED
:1042480062E7CB6843F08073CB6070E7CB6843F4D8
:104258008033CB6091E700BF00040058034690F814
:104268002C20012A35D0012280F82C20022280F847
:104278002D20194ACA20506253205062B1F5807F20
:1042880018D0154A916921F408519161D16C21F037
:104298000041D164196B21F0020119630221D16533
:1042A8000D4AFF215162012283F82D20002083F856
:1042B8002C007047916921F488519161516C21F06B
:1042C80000415164196B21F0010119630121D16585
:1042D800E6E70220704700BF0028004038B50446D2
:1042E8000D4B5D6D036B1D4015F0010F06D115F0E8
:1042F800020F09D1012384F82D3038BD064B012265
:10430800DA65FDF75FFAF2E7034B0222DA65204629
:1043180000F0E8F9EEE700BF0028004010B50B4AAE
:10432800D36823F02003D360FDF7F8F80446074B61
:10433800DB6813F0200F07D1FDF7F0F8001BB0F58C
:104348007A7FF4D9032000E0002010BD0028004047
:1043580070B5114BDB6813F0400F02D000242046E3
:1043680070BD06460C4AD36843F08003D360FDF75E
:10437800D5F805460024084BDB6813F0400FEED152
:10438800032CECD0FDF7CAF8431BB3F57A7FF2D9BA
:10439800032486F82D40EEE70028004010B50446B7
:1043A800104BDA6822F08002DA609B6913F0200F64
:1043B80006D1FFF7B3FF98B1032084F82D000FE072
:1043C800084A936923F020039361FFF7A7FF10B110
:1043D800032084F82D00034A936943F02003936176
:1043E80010BD00BF0028004000284ED038B5044654
:1043F80090F82D307BB1022384F82D30244BCA224B
:104408005A6253225A622046FFF7A2FF40B1204B5E
:10441800FF225A6238BD80F82C30FCF7E5FEEAE747
:104428001B4B9A6922F08E6222F040029A619969C8
:10443800626820690243A06902430A439A61E268FC
:10444800A16842EA01421A61DA6822F4F852616A04
:10445800A06A01430A43DA602046FFF79FFF18B1BC
:104468000B4BFF225A62D5E709498B6923F0604359
:10447800226AE5692A4365692A4313438B61FF234E
:104488004B62012384F82D30C4E70120704700BF38
:1044980000280040002302E001330A38C0B209288E
:1044A800FAD81B01DBB218437047000090F82C3093
:1044B800012B00F0B0802DE9F04105460C460123A0
:1044C80080F82C30022380F82D30544BDE6806F437
:1044D8004076B6F5807F43D012BB9B6913F0400F3E
:1044E80001D10023CB70D4F814802078FFF7D2FFD5
:1044F80007046078FFF7CEFF47EA0027A078FFF7A8
:10450800C9FF0743E37847EA835794F82400FFF785
:10451800C1FF47EA0060236A184348EA000020E028
:104528004869B0F1803F09D0B0F5000F06D03B4B89
:104538009B6913F0400F01D10023CB702278637878
:104548001B0243EA0243A2781343E27843EA825308
:1045580094F8242043EA0263226A1343184300E0D4
:1045680000202E4BCA225A6253225A62A36AB3F51C
:10457800807F2AD0294B9A6922F408529A61022234
:10458800DA65B6F5807F40D0244B9864A269DA6476
:104598006268224B5A672A6B42F002022A639A69C0
:1045A80042F408529A611E4AD2F8803043F400332C
:1045B800C2F88030194BFF225A62012385F82D304A
:1045C800002085F82C00BDE8F081144B9A6922F48C
:1045D80088529A610122DA65B6F5807F0FD00F4BB9
:1045E8001864A2695A6462680C4B1A672A6B42F015
:1045F80001022A639A6942F488529A61D3E7A3694F
:10460800E2691343054A5364EDE7A369E26913437A
:10461800024AD364BCE70220704700BF002800406C
:104628000008005890F82C30012B17D0012180F891
:104638002C10022380F82D30094BCA225A625322CB
:104648005A629A6942F020029A61FF225A6280F8FF
:104658002D10002380F82C30184670470220704730
:104668000028004090F82C30012B20D010B40121F4
:1046780080F82C10022380F82D300E4BCA225A6283
:1046880053225A629A6942F080029A610A4CD4F81D
:10469800802042F48022C4F88020FF225A6280F8E9
:1046A8002D10002380F82C30184610BC70470220CB
:1046B800704700BF002800400008005810B50446A5
:1046C800074B5B6D13F0400F03D1012384F82D30A5
:1046D80010BD034B4022DA65FDF778F8F5E700BF17
:1046E800002800407047890001F1804101F53141FF
:1046F8000A607047890001F1804101F5314108687D
:1047080070470000074B1A6822F040021A6040F414
:10471800417018604FF4B8525A601A6842F040026B
:104728001A6070470000015830B583B0002852D095
:1047380004468379A3B10223A3714FF0B042D2F8A3
:10474800943023F40043C2F89430244B1B68C3EB25
:10475800C303C3F34C43642202FB03F3019321E038
:104768004371FCF7EBFDE6E70125A5601C4BD3F888
:10477800902042F40042C3F890201A49D1F89020C2
:1047880042F48052C1F890209A6842F400629A601C
:104798004FF400629A61B5B10123A371284603B0B2
:1047A80030BD73B1019B002BDED0019B013B01930F
:1047B8004FF0B043D3F8943013F48043F1D0012381
:1047C800EFE70025D2E72068FFF79CFF012323715C
:1047D8000023A360E0E70125E0E700BF4C000020CC
:1047E800000400580008005882B002461A4B1B68A3
:1047F800C3EBC303C3F34C43642000FB03F30193EF
:10480800019B4BB1019B013B0193144B9B6813F037
:10481800020FF5D0002001E0012090600F4B1973C2
:104828000D4B1B68C3EBC303C3F34C43642101FB6B
:1048380003F30193019B43B1019B013B0193074B98
:104848009B6813F0010FF5D001E001209060034B45
:10485800DB6802B0704700BF4C0000200000015820
:1048680082B002461C4B1B68C3EBC303C3F34C4323
:10487800642000FB03F30193019B4BB1019B013BB7
:104888000193164B9B6813F0020FF5D0002001E04E
:1048980001209060114B4FF0FF0C83F80CC00E4BB9
:1048A8001B68C3EBC303C3F34C434FF0640C0CFB0E
:1048B80003F30193019B43B1019B013B0193074B18
:1048C8009B6813F0010FF5D001E001209060034BC5
:1048D800DB680B7002B070474C00002000000158E4
:1048E80082B0134B1B6803EB4303C3F34B436422AF
:1048F80002FB03F3019306E002238360012002B068
:104908007047134212D00B4B5B6913F0040300D0BD
:104918000123019A002AEFD0019A013A0192054A2F
:10492800526912F00202ECD00122EAE70020E6E721
:104938004C0000200004005800B583B00379012B17
:1049480004D0FFF7CDFF03B05DF804FB0D4B1B68E7
:1049580003EB4303C3F34F3301930B4AD2F8903070
:1049680023F40043C2F89030019B013B0193019B63
:10497800002BF9D1044AD2F8903043F40043C2F82E
:104988009030DEE74C000020000400582DE9F0418B
:10499800054680795FFA80F8B8F1010F3ED10C46E0
:1049A80017461E466B79012B3BD001236B710223FE
:1049B800AB712846FFF7C0FF1B4AD2F8903023F4AA
:1049C8000043C2F890300D212846FFF70DFF210A59
:1049D8002846FFF709FFE1B22846FFF705FF002444
:1049E80005E0395D2846FFF7FFFE0134A4B2B44262
:1049F800F7D30D4AD2F8903043F40043C2F8903010
:104A08002846FFF76DFFAB680BB94FF0000801238C
:104A1800AB7100236B714046BDE8F0814FF002088E
:104A2800F9E74FF00208F6E7000400582DE9F041D5
:104A3800064680795FFA80F8B8F1010F41D10C463B
:104A480015461F467379012B3ED0012373713046FA
:104A5800FFF772FF1E4AD2F8903023F40043C2F8E1
:104A680090301D213046FFF7BFFE210A3046FFF780
:104A7800BBFEE1B23046FFF7B7FE00213046FFF734
:104A8800B3FE002406E029463046FFF7E9FE01356B
:104A98000134A4B2BC42F6D30D4AD2F8903043F4A4
:104AA8000043C2F890303046FFF71AFFB3680BB9DD
:104AB8004FF000080123B371002373714046BDE82D
:104AC800F0814FF00208F9E74FF00208F6E700BF5F
:104AD800000400582DE9F843054680795FFA80F90B
:104AE800B9F1010F43D1884617461E466B79012B51
:104AF80040D001236B712846FFF71EFFB8F1840FE1
:104B080005D0B8F1940F02D000232B7101E00123E6
:104B18002B711A4AD2F8903023F40043C2F890302F
:104B280041462846FFF760FE002405E0395D284627
:104B3800FFF75AFE0134A4B2B442F7D30F4AD2F8B1
:104B4800903043F40043C2F89030B8F1840F0AD192
:104B5800AB680BB94FF000090123AB7100236B71EF
:104B68004846BDE8F8832846FFF7BAFEF0E74FF05D
:104B78000209F5E74FF00209F2E700BF0004005808
:104B88002DE9F041064680795FFA80F8B8F1010F07
:104B980039D10C4615461F467379012B36D00123AF
:104BA80073713046FFF7C8FE1A4AD2F8903023F4E2
:104BB8000043C2F8903021463046FFF715FE002129
:104BC8003046FFF711FE002406E029463046FFF77D
:104BD80047FE01350134A4B2BC42F6D30D4AD2F8DF
:104BE800903043F40043C2F890303046FFF778FE27
:104BF800B3680BB94FF000080123B3710023737138
:104C08004046BDE8F0814FF00208F9E74FF002088E
:104C1800F6E700BF0004005830B583B0054600230E
:104C2800ADF80430022301AA1221FFF7A9FF9DF86D
:104C380004209DF8053043EA02231C4613F0010FB7
:104C480026D114F0020F27D114F0040F28D114F044
:104C5800080F29D114F0100F2AD114F0200F2BD1EE
:104C680014F0400F2CD114F0800F06D014F4807F7C
:104C78002AD0012128460BF019FB14F4007F28D113
:104C8800022301AA19462846FFF724FF03B030BDC6
:104C980028460BF0F3FAD4E728460BF0F7FAD3E7E7
:104CA80028460BF027FBD2E728460BF02BFBD1E771
:104CB80028460BF02FFBD0E728460BF013FBCFE775
:104CC80028460BF0EBFACEE7002128460BF0EEFA67
:104CD800D3E728460BF0FCFAD2E700002DE9F041B3
:104CE800054680795FFA80F8B8F1010F38D10C4693
:104CF80017461E466B79012B35D001236B71284668
:104D0800FFF71AFE194AD2F8903023F40043C2F88C
:104D180090300E212846FFF767FD21462846FFF709
:104D280063FD002405E0395D2846FFF75DFD013489
:104D3800A4B2B442F7D30D4AD2F8903043F40043FA
:104D4800C2F890302846FFF7CBFDAB680BB94FF09F
:104D580000080123AB7100236B714046BDE8F08168
:104D68004FF00208F9E74FF00208F6E70004005890
:104D78002DE9F041064680795FFA80F8B8F1010F15
:104D88003DD10C4615461F467379012B3AD00123B5
:104D980073713046FFF7D0FD1C4AD2F8903023F4E7
:104DA8000043C2F890301E213046FFF71DFD214612
:104DB8003046FFF719FD00213046FFF715FD0024A6
:104DC80006E029463046FFF74BFD01350134A4B211
:104DD800BC42F6D30D4AD2F8903043F40043C2F8EF
:104DE80090303046FFF77CFDB3680BB94FF00008F0
:104DF8000123B371002373714046BDE8F0814FF081
:104E08000208F9E74FF00208F6E700BF000400586F
:104E1800026852E8003F23F0C00342E8003100294D
:104E2800F6D1026802F1080353E8003F23F40003B7
:104E3800083242E800310029F3D12023C0F8843039
:104E48007047026852E8003F23F4907342E800314B
:104E58000029F6D1026802F1080353E8003F23F065
:104E6800805323F00103083242E800310029F1D1D0
:104E7800C36E012B06D02023C0F888300023C366F8
:104E880003677047026852E8003F23F0100342E8C6
:104E980000310029F6D1EEE71346D0F88420202A05
:104EA8004AD110B50446002948D0002B48D090F8C4
:104EB8008020012A46D0012280F880200165A0F8D0
:104EC8005430A0F856300022C0F88C202122C0F8B7
:104ED8008420826FE2B11C49D162826F1B49116341
:104EE800826F1B495163826F0021916302682832E7
:104EF800016D806FFDF7DAFF50B11023C4F88C30D4
:104F0800002384F880302023C4F88430012012E084
:104F1800236840221A62002384F88030226802F154
:104F2800080353E8003F43F08003083242E80031A9
:104F38000029F3D1002010BD022070470120FAE7B4
:104F48000120F8E70220F6E75D4F0008CB4F000884
:104F5800D74F000808B50346806A1B681B6813F022
:104F6800200F18D10023A0F85630026802F1080378
:104F780053E8003F23F08003083242E8003100295B
:104F8800F3D1026852E8003F43F0400342E80031A1
:104F98000029F6D108BDFCF751FDFBE708B502680A
:104FA80052E8003F23F0400342E800310029F6D1DF
:104FB8002023C0F8843000234367FCF73FFD08BD79
:104FC800704708B5806AFFF7FBFF08BD704738B522
:104FD800846AD4F88420D4F8885023689B6813F036
:104FE800800F01D0212A10D023689B6813F0400F4E
:104FF80001D0222D10D0D4F88C3043F01003C4F81F
:105008008C302046FFF7E2FF38BD0023A4F8563065
:105018002046FFF7FDFEE7E70023A4F85E302046B0
:10502800FFF70FFFE7E708B5806A0023A0F85E30B6
:10503800A0F85630FFF7CAFF08BD704770B50446A0
:105048000268D3691068916840F60F0C13EA0C0FD8
:105058000DD113F0200F10D010F0200F02D111F055
:10506800805F0AD0236F93B3204698472FE0B04D56
:105078000D402DD1AF4E30422AD1E56E012D00F002
:10508800BD8013F4801F03D011F4800F40F05681C7
:1050980013F0800F07D010F0800F40F0568111F404
:1050A800000F40F0528113F0400F03D010F0400F72
:1050B80040F0528113F4000F03D010F0804F40F0FD
:1050C8004F8113F0807F02D00028C0F24D8170BD5F
:1050D80013F0010F09D010F4807F06D00126166264
:1050E800D4F88C203243C4F88C2013F0020F0BD074
:1050F80011F0010F08D0226802261662D4F88C201D
:1051080042F00402C4F88C2013F0040F0BD011F005
:10511800010F08D0226804261662D4F88C2042F0C9
:105128000202C4F88C2013F0080F0BD010F0200FE7
:1051380000D13DB1226808251562D4F88C202A4395
:10514800C4F88C2013F4006F0CD010F0806F09D0D5
:1051580022684FF400651562D4F88C2042F02002D2
:10516800C4F88C20D4F88C20002AB0D013F0200F7B
:1051780009D010F0200F02D111F0805F03D0236F07
:105188000BB120469847D4F88C2023689B6813F00D
:10519800400F02D112F0280F29D02046FFF751FE08
:1051A80023689B6813F0400F1DD0226802F10803A2
:1051B80053E8003F23F04003083242E80031002959
:1051C800F3D1E36F5BB15C4A9A63E06FFDF7F4FEDD
:1051D80000283FF47CAFE06F836B984777E7204661
:1051E800FFF7F4FE73E72046FFF7F0FE6FE720466F
:1051F800FFF7ECFE0023C4F88C3068E713F0100FBB
:105208003FF43FAF10F0100F3FF43BAF1023136291
:1052180023689B6813F0400F4FD0E26F13685B68F8
:105228009BB2002B3FF453AFB4F85C1099427FF661
:105238004EAFA4F85E3013681B6813F0200F31D10D
:10524800226852E8003F23F4807342E800310029C5
:10525800F6D1226802F1080353E8003F23F0010366
:10526800083242E800310029F3D1226802F108032C
:1052780053E8003F23F04003083242E80031002998
:10528800F3D12023C4F888300023E366226852E86B
:10529800003F23F0100342E800310029F6D1E06F07
:1052A800FDF750FEB4F85C10B4F85E309BB2C91A32
:1052B80089B22046FFF7C1FE09E7B4F85C10B4F8DC
:1052C8005E309BB2C91A89B2B4F85E309BB2002B2B
:1052D8003FF4FDAE00293FF4FAAE226852E8003FE1
:1052E80023F4907342E800300028F6D1226802F1D6
:1052F800080353E8003F23F0805323F001030832EA
:1053080042E800300028F1D12023C4F88830002377
:10531800E3662367226852E8003F23F0100342E85F
:1053280000300028F6D12046FFF787FECFE600BF01
:1053380001000010200100042F5000084FF48013D2
:105348001362204600F00AFEC1E6636F002B3FF4AB
:10535800BEAE20469847BAE62046FFF71FFEB6E6DF
:10536800204600F0FDFDB2E6204600F0F8FDAEE66E
:1053780008B5B0F86030D0F88820222A05D0026835
:10538800936943F00803936108BD0268516ADBB270
:10539800826D0B401370836D01338365B0F85E3006
:1053A8009BB2013B9BB2A0F85E30B0F85E309BB276
:1053B800002BE9D1026852E8003F23F4907342E8D9
:1053C80000310029F6D1026802F1080353E8003FD2
:1053D80023F00103083242E800310029F3D12023E9
:1053E800C0F8883000230367C36E012B16D1002351
:1053F800C366026852E8003F23F0100342E8003118
:105408000029F6D10368DA6912F0100F01D01022D2
:105418001A62B0F85C10FFF710FEB5E7FCF716FB50
:10542800B2E708B5B0F86020D0F88830222B05D054
:105438000268936943F00803936108BD03685B6AD7
:10544800816D13400B80836D02338365B0F85E3045
:105458009BB2013B9BB2A0F85E30B0F85E309BB2C5
:10546800002BEAD1026852E8003F23F4907342E827
:1054780000310029F6D1026802F1080353E8003F21
:1054880023F00103083242E800310029F3D1202338
:10549800C0F8883000230367C36E012B16D10023A0
:1054A800C366026852E8003F23F0100342E8003167
:1054B8000029F6D10368DA6912F0100F01D0102222
:1054C8001A62B0F85C10FFF7B8FDB6E7FCF7BEFA51
:1054D800B3E700002DE9F843B0F860600368DD69C0
:1054E800D3F80090D3F80880D0F88820222A05D075
:1054F8009A6942F008029A61BDE8F8830446B0F858
:10550800687008E0D4F88C30002B4CD1B4F85E30C9
:105518009BB2002B4ED0002F00F0878015F0200F93
:1055280000F083802368596AF3B2A26D0B401370B0
:10553800A36D0133A365B4F85E309BB2013B9BB207
:10554800A4F85E302368DD6915F0070FDED015F08A
:10555800010F09D019F4807F06D001221A62D4F80D
:105568008C301343C4F88C3015F0020F0BD018F0B0
:10557800010F08D0236802221A62D4F88C3043F055
:105588000403C4F88C3015F0040FBBD018F0010FD9
:10559800B8D0236804221A62D4F88C3043F002038E
:1055A800C4F88C30AEE72046FFF710FD0023C4F89E
:1055B8008C30ABE7226852E8003F23F4807342E85E
:1055C80000310029F6D1226802F1080353E8003FB0
:1055D80023F0805323F00103083242E80031002908
:1055E800F1D12023C4F8883000232367E36E012B10
:1055F80003D02046FCF72AFA8DE70023E3662268E9
:1056080052E8003F23F0100342E800310029F6D1A8
:105618002368DA6912F0100F01D010221A62B4F868
:105628005C102046FFF709FD75E7B4F85E309BB2C1
:10563800002B3FF461AFB4F868209A427FF65CAF64
:10564800226802F1080353E8003F23F08053083230
:1056580042E800310029F3D1054B2367226852E85C
:10566800003F43F0200342E800310029F6D143E728
:10567800795300082DE9F843B0F860600368DD69E4
:10568800D3F80090D3F80880D0F88820222A05D0D3
:105698009A6942F008029A61BDE8F8830446B0F8B6
:1056A800687008E0D4F88C30002B4BD1B4F85E3029
:1056B8009BB2002B4DD0002F00F0868015F0200FF4
:1056C80000F0828023685B6AA26D33401380A36D6B
:1056D8000233A365B4F85E309BB2013B9BB2A4F8D9
:1056E8005E302368DD6915F0070FDFD015F0010F74
:1056F80009D019F4807F06D001221A62D4F88C30C0
:105708001343C4F88C3015F0020F0BD018F0010FBA
:1057180008D0236802221A62D4F88C3043F00403BC
:10572800C4F88C3015F0040FBCD018F0010FB9D0B4
:10573800236804221A62D4F88C3043F00203C4F8B8
:105748008C30AFE72046FFF741FC0023C4F88C30CB
:10575800ACE7226852E8003F23F4807342E8003146
:105768000029F6D1226802F1080353E8003F23F02C
:10577800805323F00103083242E800310029F1D1B7
:105788002023C4F8883000232367E36E012B03D05D
:105798002046FCF75BF98EE70023E366226852E8AF
:1057A800003F23F0100342E800310029F6D12368B6
:1057B800DA6912F0100F01D010221A62B4F85C10E6
:1057C8002046FFF73AFC76E7B4F85E309BB2002B30
:1057D8003FF462AFB4F868209A427FF65DAF226862
:1057E80002F1080353E8003F23F08053083242E8EF
:1057F80000310029F3D1064B2367226852E8003FA5
:1058080043F0200342E800310029F6D144E700BF05
:105818002B54000870B50446836802691343426933
:105828001343C2691343016808689D4A02401A433A
:105838000A602268536823F44053E1680B435360BD
:10584800A1692268974B9A4201D0236A1943936849
:1058580023F06E4323F430630B4393602268D36ACA
:1058680023F00F03616A0B43D36223688E4A934285
:105878001CD08E4A934231D08A4A93424BD0102290
:1058880088498B4268D0E069B0F5004F00F0A580E8
:10589800082A00F21F81DFE812F0D300F500D100DA
:1058A8001D01F8001D011D011D01FB004FF0B04254
:1058B800D2F8882002F0030242F44032A2F54032C6
:1058C800032A09D8DFE802F002043C060122D7E7E0
:1058D8000422D5E70822D3E71022D1E74FF0B042DF
:1058E800D2F8882002F00C0242F44022A2F54022AD
:1058F8000C2A0ED8DFE802F0070D0D0D090D0D0D6D
:10590800260D0D0D0B000022BAE70422B8E7082285
:10591800B6E71022B4E74FF0B042D2F8882002F47C
:105928004062B2F5006F0FD005D87AB1B2F5806F3A
:105938000ED10422A4E7B2F5406F0BD108229FE7ED
:1059480002229DE702229BE7022299E7002297E7BD
:10595800102295E7102293E7082A00F29C80DFE8DE
:1059680002F0089A3A9A379A9A9A05004FF400403A
:1059780004E0FEF723FB002800F08F80626A4C4B9E
:1059880033F81220B0FBF2F3656805EB4501994244
:1059980000F29480B3EB053F00F292800026334674
:1059A8003146FBF7D7F8090241EA106100026B089B
:1059B800C0182A46334641F10001FBF7CBF8A0F5A1
:1059C80040723C4B9A427DD82368D860304650E0FC
:1059D800FDF70EFECFE73848D0E7082A74D8DFE88D
:1059E80002F0072705732A7373730B00324803E02C
:1059F800FEF7E4FA002869D0626A2D4B33F81230BA
:105A0800B0FBF3F06268530803EB4003B3FBF2F317
:105A18009BB2A3F110014FF6EF72914258D823F0D0
:105A28000F02C3F3420313432268D360002020E02F
:105A3800FEF7D4FADEE7FDF7DBFDDBE71E4803E0FF
:105A4800FEF7BCFA002847D0626A194B33F81230C7
:105A5800B0FBF3F0636800EB5300B0FBF3F080B2E7
:105A6800A0F110024FF6EF739A4237D82368D86036
:105A780000200123A4F86A30A4F8683000232367C3
:105A8800636770BDFEF7AAFADCE7FDF7B1FDD9E759
:105A98004FF40040D8E70120EBE70020E9E700BF1A
:105AA800F369FFCF00800040003801400044004007
:105AB800C01A0108FFFC0F000024F4000120D8E7F9
:105AC8000120D6E70120D4E70120D2E70020D0E763
