:020000040800F2
:1000000000000120410F0008250C00082D0C0008FD
:10001000350C00083D0C0008450C000800000000ED
:100020000000000000000000000000004D0C00086F
:10003000590C000800000000650C0008710C000855
:10004000910F0008910F0008910F0008910F000810
:10005000910F0008910F0008910F0008910F000800
:10006000910F0008910F0008910F0008910F0008F0
:10007000910F0008910F0008910F0008910F0008E0
:10008000910F0008910F0008910F0008910F0008D0
:1000900000000000910F0008910F0008910F000868
:1000A000910F0008910F0008910F0008910F0008B0
:1000B000910F0008910F0008910F0008910F0008A0
:1000C000910F0008910F0008910F0008910F000890
:1000D0007D0C0008910F0008910F0008910F000897
:1000E000910F0008910F0008910C0008910F000873
:1000F000910F00080000000000000000910F0008B0
:10010000910F0008910F0008A50C0008910F00083E
:10011000910F0008910F0008910F0008910F00083F
:10012000910F0008910F0008910F0008910F00082F
:08013000910F0008910F000877
:1001400010B5054C237833B9044B13B10448AFF311
:1001500000800123237010BD680000200000000013
:10016000E4A1000808B5034B1BB103490348AFF3F2
:10017000008008BD000000006C000020E4A1000821
:1001800001F0FF01102A2BDB10F0070F08D010F848
:10019000013B013A8B422DD010F0070F42B3F6D14C
:1001A000F0B441EA012141EA014122F007047FF065
:1001B00000070023F0E80256083C85EA010586EABC
:1001C000010685FA47F5A3FA87F586FA47F6A5FAF8
:1001D00087F68EB9EED1F0BC01F0FF0102F0070204
:1001E00032B110F8013B013A83EA010313B1F8D1AF
:1001F0000020704701387047002D06BF3546033890
:10020000073815F0010F07D1013015F4807F02BFC8
:10021000013015F4C03F0130F0BC0138704700BF19
:1002200053B94AB9002908BF00281CBF4FF0FF315D
:100230004FF0FF3000F088B9ADF1080C6DE904CE45
:1002400000F006F8DDF804E0DDE9022304B07047B1
:100250002DE9F047089D8E4604468846002B4AD17A
:100260008A42174662D9B2FA82F64EB1C6F120032D
:1002700001FA06F820FA03F3B74043EA0808B4404D
:100280004FEA174E1FFA87FCB8FBFEF1230C0EFB5A
:10029000118843EA084301FB0CF29A4209D9FB1882
:1002A00001F1FF3080F0EA809A4240F2E7800239A3
:1002B0003B449A1AA3B2B2FBFEF00EFB102243EAB3
:1002C000024300FB0CFC9C4509D9FB1800F1FF32EE
:1002D00080F0D6809C4540F2D3803B44023840EA0F
:1002E0000140A3EB0C0300211DB1F3400022C5E93E
:1002F0000032BDE8F0878B4205D90DB1C5E9000198
:1003000000210846F5E7B3FA83F1002946D1734589
:1003100002D3824200F20581841A6EEB03020120AF
:100320009046002DE5D0C5E90048E2E7002A00F03C
:100330009080B2FA82F6002E40F0A4808A1A030C54
:100340004FEA174E80B2BCB20121B2FBFEFC0EFB9D
:100350001C2243EA024304FB0CF29A4207D9FB1821
:100360000CF1FF3802D29A4200F2E080C4469B1A98
:10037000B3FBFEF20EFB123340EA034302FB04F42C
:100380009C4207D9FB1802F1FF3002D29C4200F2D6
:10039000CA8002461B1B42EA0C40A5E7C1F12006B9
:1003A0008B4022FA06F71F430EFA01F420FA06F3F7
:1003B0002EFA06FE4FEA1749234300FA01F81FFA06
:1003C00087FCBEFBF9F01C0C09FB10EE44EA0E445E
:1003D00000FB0CFEA64502FA01F209D93C1900F116
:1003E000FF3A80F09C80A64540F2998002383C4458
:1003F000A4EB0E041FFA83FEB4FBF9F309FB1344CC
:100400004EEA044403FB0CFCA44508D93C1903F153
:10041000FF3E80F08280A4457FD9023B3C4443EA02
:100420000040A4EB0C04A0FB02EC64457346E146DB
:1004300062D35FD05DB1B8EB030264EB090404FA48
:1004400006F622FA01F31E43CC40C5E90064002100
:100450004FE7B1FBF2FC010C41EA0E4180B240EAE9
:1004600001423B4638463C46B846BE462026B1FBD4
:10047000F7F1A2EB080241EA0C4166E7014618E7F2
:1004800010462CE7C6F120022EFA02F3B740B14025
:1004900020FA02F24FEA174E0A43B3FBFEF8BCB251
:1004A0000EFB1833110C41EA034108FB04F9B0407C
:1004B00089454FEA104380B23ED9791808F1FF3CD4
:1004C00001D289451FD8A1EB0901B1FBFEF909FB57
:1004D00004F80EFB191192B242EA0142424529D2B8
:1004E000BA1809F1FF31C4D24245C2D2A9F10201C2
:1004F0003A44BEE7F0459DD2BEEB02036CEB070C1D
:100500000138E14696E7A7EB09094944A8F1020C36
:10051000B1FBFEF909FB04F8DBE773467FE75046C1
:1005200066E70846FDE63B44023A33E7ACF1020CCD
:100530003B441CE749469CE7A1EB0901C446B1FBDB
:10054000FEF909FB04F8C4E7704700BF80B483B02C
:1005500000AF78604FF0B043D3F8903023F018022A
:100560004FF0B0417B681343C1F8903000BF0C37A7
:10057000BD4680BC704780B485B000AF78604FF056
:10058000B043DA6C4FF0B0417B681343CB644FF05B
:10059000B043DA6C7B681340FB60FB6800BF143724
:1005A000BD4680BC7047000080B582B000AF786067
:1005B000391D4FF0FF330122034803F0E2FE7B6850
:1005C00018460837BD4680BD1401002080B500AF35
:1005D00000F0E0FC00F022F800F0BCF900F078F840
:1005E00000F06CF900F01CF908F08DFA084808F0EA
:1005F0009DFF08F097FA074808F098FF064B1B6E1E
:1006000098470A2000F072FB08F085FA00BFF5E772
:10061000FCA1000820A2000870A4000880B59AB0D0
:1006200000AF07F1200348220021184609F05EF8C8
:1006300007F1080300221A605A609A60DA601A61B2
:100640005A6101F053F80020FFF780FF1F4B1B6831
:1006500023F4C0631D4A43F4007313601B4B1B68F3
:1006600003F4C0637B607B6824233B628123FB62CD
:1006700001233B6400237B64B023BB640023FB6441
:1006800007F12003184601F0DBFA0346002B01D0E6
:1006900000F0A0F94F23BB600023FB6000233B6107
:1006A00000237B610023BB610023FB6107F108038A
:1006B0000221184601F046FE0346002B01D000F04F
:1006C00089F900BF6837BD4680BD00BF00040058EF
:1006D00080B592B000AF07F1340300221A605A606F
:1006E0009A60DA601A6100233B633B1D2C220021D3
:1006F000184608F0FBFF3F4B3F4A1A603D4B002273
:100700005A603C4B7F229A603A4BFF22DA60394BA9
:1007100000221A61374B00225A61364B00229A613F
:10072000344B4FF08042DA61324B00221A62314B77
:1007300000225A622F4802F0C1FA0346002B01D072
:1007400000F048F9002387F83430002387F835306B
:10075000002387F8363000233B6400237B6407F1D5
:10076000340301221946234802F02AFB0346002BDA
:1007700001D000F02FF9012387F83030012387F8EA
:100780003130012387F83230002387F8333007F106
:10079000300301221946174802F0AEFB0346002B36
:1007A00001D000F017F900233B7100237B71002377
:1007B000BB710023BB6000233B6100237B610023EE
:1007C000BB610023FB6100237B62012387F8283093
:1007D0004FF48073FB623B1D01221946054802F06D
:1007E00011FC0346002B01D000F0F4F800BF48379D
:1007F000BD4680BD840000200028004080B500AFC9
:10080000064B00221A60054802F096FE0346002BB4
:1008100001D000F0DFF800BF80BD00BFBC000020A9
:1008200080B588B000AF07F1100300221A605A604B
:100830009A60DA603B1D00221A605A609A601E4B73
:100840004FF080421A601C4B4BF67F325A601A4BB5
:1008500000229A60184B40F2E732DA60164B002211
:100860001A61154B00229A61134803F095FA03466A
:10087000002B01D000F0AEF84FF480533B6107F13C
:10088000100319460C4803F0DEFA0346002B01D092
:1008900000F0A0F800237B600023FB603B1D19469D
:1008A000054803F09FFC0346002B01D000F092F8AE
:1008B00000BF2037BD4680BDC800002080B500AF16
:1008C000224B234A1A60214B4FF4E1325A601F4BEE
:1008D00000229A601D4B0022DA601C4B00221A6134
:1008E0001A4B0C225A61194B00229A61174B0022B5
:1008F000DA61164B00221A62144B00225A62134B23
:1009000000229A62114803F0ECFC0346002B01D050
:1009100000F060F800210D4804F026FE0346002B8D
:1009200001D000F057F80021084804F05BFE0346B0
:10093000002B01D000F04EF8044804F0DDFD034622
:10094000002B01D000F046F800BF80BD140100204C
:100950000038014080B586B000AF3B1D00221A6010
:100960005A609A60DA601A610120FFF704FE0420E1
:10097000FFF701FE0220FFF7FEFD00223821144898
:1009800000F09CFE002230214FF0904000F096FED7
:1009900038237B600123BB600023FB6000233B61A5
:1009A0003B1D19460A4800F029FD30237B600123D6
:1009B000BB600023FB6000233B613B1D19464FF0E9
:1009C000904000F01BFD00BF1837BD4680BD00BF42
:1009D0000008004880B500AF034808F03FFD72B63C
:1009E00000BF00BFFDE700BF34A2000880B400AF25
:1009F0004FF0B043D3F890304FF0B04243F400438F
:100A0000C2F8903000BFBD4680BC704780B485B04E
:100A100000AF78604FF0B043DA6C4FF0B0417B68C4
:100A20001343CB644FF0B043DA6C7B681340FB6038
:100A3000FB6800BF1437BD4680BC704780B485B0EA
:100A400000AF78604FF0B0439A6D4FF0B0417B68D3
:100A500013438B654FF0B0439A6D7B681340FB6086
:100A6000FB6800BF1437BD4680BC704780B485B0BA
:100A700000AF78604FF0B0431A6E4FF0B0417B6822
:100A800013430B664FF0B0431A6E7B681340FB6054
:100A9000FB6800BF1437BD4680BC704780B485B08A
:100AA00000AF78604FF0B0435A6E4FF0B0417B68B2
:100AB00013434B664FF0B0435A6E7B681340FB60A4
:100AC000FB6800BF1437BD4680BC704780B400AFE0
:100AD00000BFBD4680BC704780B590B000AF786065
:100AE00007F1080338220021184608F0FFFD7B6853
:100AF0001B68124A93421DD14FF48033BB604FF400
:100B00008073FB6307F10803184601F0BDFF03463D
:100B1000002B01D0FFF75EFFFFF768FF4FF4806006
:100B2000FFF78CFF002200212A2000F076FB2A200C
:100B300000F08DFB00BF4037BD4680BD002800405F
:100B400080B582B000AF78600120FFF7A7FF0022D8
:100B50000021322000F061FB322000F078FB00BF62
:100B60000837BD4680BD80B582B000AF78607B6835
:100B70001B68B3F1804F02D10120FFF75FFF00BF78
:100B80000837BD4680BD000080B596B000AF7860E4
:100B900007F1440300221A605A609A60DA601A6111
:100BA00007F10C0338220021184608F09FFD7B68EE
:100BB0001B681A4A93422DD10123FB604FF4403346
:100BC0003B6107F10C03184601F05EFF0346002B62
:100BD00001D0FFF7FFFE4FF48040FFF747FF0220F0
:100BE000FFF714FFC0237B640223BB640023FB6474
:100BF00000233B6507237B6507F14403194608483A
:100C000000F0FCFB00220221242000F006FB24203F
:100C100000F01DFB00BF5837BD4680BD00380140C5
:100C20000004004880B400AF00BFFDE780B400AF0F
:100C300000BFFDE780B400AF00BFFDE780B400AFA8
:100C400000BFFDE780B400AF00BFFDE780B400AF98
:100C500000BFBD4680BC704780B400AF00BFBD463A
:100C600080BC704780B400AF00BFBD4680BC7047F9
:100C700080B500AF00F0E8F900BF80BD80B500AFDF
:100C8000024803F005FC00BF80BD00BF1401002036
:100C900080B500AF024802F0C1FA00BF80BD00BFBE
:100CA0008400002080B500AF024802F0C7FE00BFFC
:100CB00080BD00BFBC00002080B400AF00BFBD46B7
:100CC00080BC704780B582B000AF00237B60064BCC
:100CD0001B78002B02D000F0FCF878607B68184687
:100CE0000837BD4680BD00BFA801002080B582B096
:100CF00000AF78607B68184600F019F900BF08372C
:100D0000BD4680BD80B586B000AFF860B9607A603E
:100D100000237B610AE0AFF300800146BB685A1CE8
:100D2000BA60CAB21A707B6901337B617A697B68E9
:100D30009A42F0DB7B6818461837BD4680BD80B507
:100D400086B000AFF860B9607A6000237B6109E08B
:100D5000BB685A1CBA601B781846FFF725FC7B69F4
:100D600001337B617A697B689A42F1DB7B681846C4
:100D70001837BD4680BD80B483B000AF78604FF0B7
:100D8000FF3318460C37BD4680BC704780B483B033
:100D900000AF786039603B684FF400525A6000231E
:100DA00018460C37BD4680BC704780B483B000AF96
:100DB0007860012318460C37BD4680BC704780B46C
:100DC00085B000AFF860B9607A6000231846143728
:100DD000BD4680BC7047000080B586B000AF78602B
:100DE000144A154BD31A7B617B693B61134B1B681B
:100DF000002B02D1114B124A1A60104B1A687B6803
:100E000013443A699A4207D208F0BEFC03460C220A
:100E10001A604FF0FF3309E0084B1B68FB60074B7B
:100E20001A687B681344054A1360FB681846183734
:100E3000BD4680BD0000012000040000AC01002080
:100E4000C804002080B400AF00BFBD4680BC70471E
:100E500080B483B000AF0023FB71FB7918460C37D8
:100E6000BD4680BC704780B485B000AF7860002379
:100E7000FB73FB7B18461437BD4680BC704780B4BB
:100E800083B000AF0023FB71FB7918460C37BD46D9
:100E900080BC704780B400AF024B1B681846BD464B
:100EA00080BC7047B001002080B400AF024B1B68CB
:100EB0001846BD4680BC7047B001002080B483B0A6
:100EC00000AF00237B607B6818460C37BD4680BCB2
:100ED000704780B483B000AF00237B607B68184606
:100EE0000C37BD4680BC704780B483B000AF002390
:100EF0007B607B6818460C37BD4680BC704780B469
:100F000085B000AF78600023FB60FB68184614379B
:100F1000BD4680BC704780B485B000AF78600023C8
:100F2000FB60FB6818461437BD4680BC704780B430
:100F300083B000AF786000BF0C37BD4680BC7047FF
:100F40000D488546FFF77EFF0C480D490D4A0023EA
:100F500002E0D458C4500433C4188C42F9D30A4A6E
:100F60000A4C002301E013600432A242FBD308F0D4
:100F700011FCFFF72BFBFEE7000001200000002022
:100F800068000020F4A5000868000020C4040020C8
:100F9000FEE7000080B582B000AF0023FB710320A4
:100FA00000F030F901F092FB0346094A13600F206C
:100FB00000F010F80346002B02D00123FB7101E082
:100FC000FFF784FDFB7918460837BD4680BD00BF9A
:100FD0000000002080B584B000AF78600023FB7370
:100FE000174B1B78002B24D001F070FB0246144BEA
:100FF0001B7819464FF47A73B3FBF1F3B2FBF3F3AA
:10100000184600F032F90346002B0FD17B680F2BF6
:1010100009D8002279684FF0FF3000F0FEF8094A45
:101020007B68136007E00123FB7304E00123FB737B
:1010300001E00123FB73FB7B18461037BD4680BDE2
:10104000080000200400002080B400AF054B1B788E
:101050001A46054B1B681344034A136000BFBD4684
:1010600080BC704708000020B401002080B485B027
:1010700000AF78607B6803F00703FB600C4BDB6814
:10108000BB60BA684FF6FF031340BB60FB681A02EF
:10109000BB68134343F0BF6343F40033BB60044AAF
:1010A000BB68D36000BF1437BD4680BC704700BF2B
:1010B00000ED00E080B400AF044BDB681B0A03F0D6
:1010C00007031846BD4680BC704700BF00ED00E036
:1010D00080B483B000AF0346FB7197F90730002B53
:1010E0000BDBFB7903F01F02064997F907305B0918
:1010F000012000FA02F241F8232000BF0C37BD4660
:1011000080BC704700E100E080B483B000AF0346CC
:101110003960FB7197F90730002B0ADB3B68DAB2C4
:101120000C4997F907301201D2B20B4483F800231F
:101130000AE03B68DAB20849FB7903F00F03043B8D
:101140001201D2B20B441A7600BF0C37BD4680BCE8
:10115000704700BF00E100E000ED00E080B489B01E
:1011600000AFF860B9607A60FB6803F00703FB61C9
:10117000FB69C3F10703042B28BF0423BB61FB6990
:101180000433062B02D9FB69033B00E000237B619B
:101190004FF0FF32BB6902FA03F3DA43BB681A402F
:1011A0007B699A404FF0FF317B6901FA03F3D94321
:1011B0007B680B40134318462437BD4680BC7047FC
:1011C00080B582B000AF78607B68013BB3F1807F6F
:1011D00001D301230FE00A4A7B68013B53600F21D2
:1011E0004FF0FF30FFF790FF054B00229A60044B51
:1011F00007221A60002318460837BD4680BD00BF8D
:1012000010E000E080B582B000AF78607868FFF74A
:101210002DFF00BF0837BD4680BD80B586B000AF4A
:101220000346B9607A60FB73FFF744FF78617A6820
:10123000B9687869FFF792FF024697F90F301146B7
:101240001846FFF761FF00BF1837BD4680BD80B567
:1012500082B000AF0346FB7197F907301846FFF7DD
:1012600037FF00BF0837BD4680BD80B582B000AFF4
:1012700078607868FFF7A4FF034618460837BD4634
:1012800080BD80B483B000AF78607B68002B01D153
:1012900001234FE07B6893F82530DBB2022B08D0A6
:1012A0007B680422DA637B68002283F82420012310
:1012B00040E07B681B681A687B681B6822F00E029E
:1012C0001A607B689B6C1A687B689B6C22F4807246
:1012D0001A607B681B681A687B681B6822F0010231
:1012E0001A607B685B6C03F01C027B681B6C01213D
:1012F00001FA02F25A607B68DB6C7A68126D5A6000
:101300007B685B6D002B0CD07B685B6D1A687B681B
:101310005B6D22F480721A607B689B6D7A68D26D77
:101320005A607B68012283F825207B68002283F8BD
:101330002420002318460C37BD4680BC704780B57A
:1013400084B000AF78600023FB737B6893F825308E
:10135000DBB2022B05D07B680422DA630123FB7326
:1013600047E07B681B681A687B681B6822F00E02E6
:101370001A607B681B681A687B681B6822F0010290
:101380001A607B689B6C1A687B689B6C22F4807285
:101390001A607B685B6C03F01C027B681B6C01218C
:1013A00001FA02F25A607B68DB6C7A68126D5A604F
:1013B0007B685B6D002B0CD07B685B6D1A687B686B
:1013C0005B6D22F480721A607B689B6D7A68D26DC7
:1013D0005A607B68012283F825207B68002283F80D
:1013E00024207B689B6B002B03D07B689B6B786809
:1013F0009847FB7B18461037BD4680BD80B487B048
:1014000000AF7860396000237B6140E13B681A6877
:1014100001217B6901FA03F31340FB60FB68002B99
:1014200000F032813B685B6803F00303012B05D0B9
:101430003B685B6803F00303022B30D17B689B6839
:101440003B617B695B00032202FA03F3DB433A69E9
:1014500013403B613B68DA687B695B0002FA03F387
:101460003A6913433B617B683A699A607B685B68C1
:101470003B6101227B6902FA03F3DB433A691340C3
:101480003B613B685B681B0903F001027B6902FA60
:1014900003F33A6913433B617B683A695A603B68DE
:1014A0005B6803F00303032B17D07B68DB683B61A9
:1014B0007B695B00032202FA03F3DB433A691340C2
:1014C0003B613B689A687B695B0002FA03F33A6907
:1014D00013433B617B683A69DA603B685B6803F001
:1014E0000303022B23D17B69DA087B68083253F8A7
:1014F00022303B617B6903F007039B000F2202FA55
:1015000003F3DB433A6913403B613B681A697B692B
:1015100003F007039B0002FA03F33A6913433B61AC
:101520007B69DA087B680832396943F822107B68E6
:101530001B683B617B695B00032202FA03F3DB4318
:101540003A6913403B613B685B6803F003027B69C7
:101550005B0002FA03F33A6913433B617B683A6923
:101560001A603B685B6803F44033002B00F08C800A
:101570004E4A7B699B08023352F823303B617B69FA
:1015800003F003039B00072202FA03F3DB433A69EB
:1015900013403B617B68B3F1904F0DD07B68444AA8
:1015A000934207D07B68434A934201D1022304E06F
:1015B000072302E0012300E000237A6902F003021E
:1015C000920093403A6913433B6138497B699B0819
:1015D00002333A6941F82320374B1B683B61FB68B3
:1015E000DB433A6913403B613B685B6803F480135B
:1015F000002B03D03A69FB6813433B612E4A3B69D9
:1016000013602D4B5B683B61FB68DB433A69134019
:101610003B613B685B6803F40013002B03D03A691D
:10162000FB6813433B61244A3B695360224BD3F868
:1016300080303B61FB68DB433A6913403B613B68A8
:101640005B6803F48033002B03D03A69FB681343D3
:101650003B61194A3B69C2F88030174BD3F884309C
:101660003B61FB68DB433A6913403B613B685B6865
:1016700003F40033002B03D03A69FB6813433B614A
:101680000D4A3B69C2F884307B6901337B613B685A
:101690001A687B6922FA03F3002B7FF4B7AE00BF10
:1016A00000BF1C37BD4680BC704700BF0000014032
:1016B00000040048000800480008005880B483B0C7
:1016C00000AF78600B467B8013467B707B78002BE5
:1016D00003D07A887B689A6102E07A887B689A6294
:1016E00000BF0C37BD4680BC7047000080B400AF1F
:1016F000044B1B68034A43F48073136000BFBD466C
:1017000080BC70470004005880B400AF034B1B68D6
:1017100003F4C0631846BD4680BC704700040058FF
:1017200080B400AF064B1B6803F48073B3F5807F71
:1017300001D1012300E000231846BD4680BC70475C
:101740000004005880B400AF4FF0B0431B684FF066
:10175000B04243F40013136000BFBD4680BC704725
:1017600080B400AF4FF0B0431B684FF0B04223F499
:101770000013136000BFBD4680BC704780B400AF4B
:101780004FF0B0431B6803F48013B3F5801F01D101
:10179000012300E000231846BD4680BC704780B49A
:1017A00000AF4FF0B0431B684FF0B04243F48033BA
:1017B000136000BFBD4680BC704780B400AF4FF0DF
:1017C000B0431B684FF0B04223F48033136000BF76
:1017D000BD4680BC704780B400AF4FF0B0431B687B
:1017E00003F40033B3F5003F01D1012300E00023EF
:1017F0001846BD4680BC704780B400AF4FF0B04380
:101800001B684FF0B04243F48073136000BFBD46C5
:1018100080BC704780B400AF4FF0B0431B684FF0FE
:10182000B04223F48073136000BFBD4680BC704794
:1018300080B400AF4FF0B0431B6803F48063B3F58E
:10184000806F01D1012300E000231846BD4680BC13
:10185000704780B483B000AF78604FF0B0435B68EE
:1018600023F0FE427B681B064FF0B04113434B60F0
:1018700000BF0C37BD4680BC704780B400AF4FF04E
:10188000B043D3F8903003F00203022B01D10123BF
:1018900000E000231846BD4680BC704780B400AF0E
:1018A0004FF0B043D3F894304FF0B04243F001030F
:1018B000C2F8943000BFBD4680BC704780B400AF12
:1018C0004FF0B043D3F894304FF0B04223F001030F
:1018D000C2F8943000BFBD4680BC704780B400AFF2
:1018E0004FF0B043D3F8943003F00203022B01D140
:1018F000012300E000231846BD4680BC704780B439
:1019000000AF4FF0B0431B684FF0B04243F001030B
:10191000136000BFBD4680BC704780B400AF4FF07D
:10192000B0431B684FF0B04223F00103136000BFC7
:10193000BD4680BC704780B400AF4FF0B0431B6819
:1019400003F00203022B01D1012300E0002318461B
:10195000BD4680BC704780B400AF4FF0B0431B68F9
:1019600003F00803082B01D1012300E000231846EF
:10197000BD4680BC704780B400AF4FF0B0431B68D9
:1019800003F0F0031846BD4680BC704780B400AF3A
:101990004FF0B043D3F8943003F470631846BD465B
:1019A00080BC704780B483B000AF78604FF0B04324
:1019B0005B6823F47F427B681B024FF0B041134306
:1019C0004B6000BF0C37BD4680BC704780B483B00D
:1019D00000AF78604FF0B0439B6823F003024FF0F4
:1019E000B0417B6813438B6000BF0C37BD4680BCA1
:1019F000704780B400AF4FF0B0439B6803F00C0316
:101A00001846BD4680BC704780B483B000AF786094
:101A10004FF0B0439B6823F0F0024FF0B0417B6879
:101A200013438B6000BF0C37BD4680BC704780B449
:101A300083B000AF78604FF0B043D3F8083123F0A3
:101A40000F027B681B094FF0B0411343C1F8083106
:101A500000BF0C37BD4680BC704780B483B000AF78
:101A600078604FF0B0439B6823F4E0624FF0B041E0
:101A70007B6813438B6000BF0C37BD4680BC70474A
:101A800080B483B000AF78604FF0B0439B6823F41C
:101A900060524FF0B0417B6813438B6000BF0C373E
:101AA000BD4680BC704780B400AF4FF0B0439B6828
:101AB00003F0F0031846BD4680BC704780B400AF09
:101AC0004FF0B043D3F808311B0103F0F003184680
:101AD000BD4680BC704780B400AF4FF0B0439B68F8
:101AE00003F4E0631846BD4680BC704780B400AF85
:101AF0004FF0B0439B6803F460531846BD4680BC6A
:101B0000704780B400AF4FF0B0431B684FF0B04255
:101B100043F08073136000BFBD4680BC704780B443
:101B200000AF4FF0B0431B684FF0B04223F080731A
:101B3000136000BFBD4680BC704780B400AF4FF05B
:101B4000B0431B6803F00073B3F1007F01D10123A0
:101B500000E000231846BD4680BC704780B400AF4B
:101B60004FF0B043DB681B0A03F07F031846BD4605
:101B700080BC704780B400AF4FF0B043DB6803F027
:101B800060431846BD4680BC704780B400AF4FF03C
:101B9000B043DB6803F070031846BD4680BC704755
:101BA00080B400AF4FF0B043DB6803F00303184686
:101BB000BD4680BC704780B400AF4FF0B0439B6817
:101BC00003F48033B3F5803F01D1012300E000230B
:101BD0001846BD4680BC704780B400AF4FF0B0439C
:101BE000D3F8083103F48033B3F5803F01D10123EA
:101BF00000E000231846BD4680BC704780B400AFAB
:101C00004FF0B0439B6803F40033B3F5003F01D1BC
:101C1000012300E000231846BD4680BC704780B415
:101C200000AF4FF0B0439B6803F48023B3F5802FDF
:101C300001D1012300E000231846BD4680BC704757
:101C400080B588B000AF78607B68002B01D101239C
:101C50006FE3FFF7CEFEF861FFF7A2FFB8617B6884
:101C60001B6803F02003002B00F0C480FB69002BED
:101C700005D0FB690C2B76D1BB69012B73D17B6836
:101C80001B6A002B01D1012353E37B689A6A4FF052
:101C9000B0431B6803F00803002B05D04FF0B0439E
:101CA0001B6803F0F00306E04FF0B043D3F8943024
:101CB0001B0903F0F003934222D27B689B6A18460B
:101CC00000F03CFD0346002B01D0012331E34FF02F
:101CD000B0431B684FF0B04243F0080313604FF06D
:101CE000B0431B6823F0F0027B689B6A4FF0B04161
:101CF00013430B607B685B6A1846FFF753FE21E0D5
:101D00004FF0B0431B684FF0B04243F0080313603C
:101D10004FF0B0431B6823F0F0027B689B6A4FF0E2
:101D2000B04113430B607B685B6A1846FFF73AFECD
:101D30007B689B6A184600F001FD0346002B01D02A
:101D40000123F6E200F0C2FC0346A74A1360A74B4A
:101D50001B681846FFF73EF90346FB74FB7C002B1B
:101D600047D0FB7CE5E27B681B6A002B2CD0FFF799
:101D7000C6FDFEF7A7FF786108E0FEF7A3FF024665
:101D80007B69D31A022B01D90323D2E2FFF7D3FDDB
:101D90000346002BF1D04FF0B0431B684FF0B04228
:101DA00043F0080313604FF0B0431B6823F0F002C8
:101DB0007B689B6A4FF0B04113430B607B685B6AA2
:101DC0001846FFF7EFFD15E0FFF7A7FDFEF77AFFD6
:101DD000786108E0FEF776FF02467B69D31A022B92
:101DE00001D90323A5E2FFF7A6FD0346002BF1D19D
:101DF00000E000BF7B681B6803F00103002B58D094
:101E0000FB69082B05D0FB690C2B08D1BB69032BA0
:101E100005D17B685B68002B4BD1012389E24FF031
:101E2000B0431B6823F480127B689B684FF0B0417D
:101E300013430B607B685B68B3F5803F02D1FFF70B
:101E4000AEFC0DE07B685B68B3F5041F04D1FFF7BF
:101E500079FCFFF7A4FC03E0FFF7AFFCFFF780FC81
:101E60007B685B68002B12D0FEF72CFF786108E0DE
:101E7000FEF728FF02467B69D31A642B01D903239E
:101E800057E2FFF7A8FC0346002BF1D011E0FEF764
:101E900019FF786108E0FEF715FF02467B69D31A47
:101EA000642B01D9032344E2FFF795FC0346002B82
:101EB000F1D17B681B6803F00203002B46D0FB695D
:101EC000042B05D0FB690C2B0ED1BB69022B0BD167
:101ED0007B681B69002B01D101232AE27B685B69C7
:101EE0001846FFF7B6FC31E07B681B69002B19D060
:101EF000FFF782FCFEF7E6FE786108E0FEF7E2FEFF
:101F000002467B69D31A022B01D9032311E2FFF7A2
:101F10008FFC0346002BF1D07B685B691846FFF706
:101F200098FC13E0FFF776FCFEF7CCFE786108E042
:101F3000FEF7C8FE02467B69D31A022B01D90323A0
:101F4000F7E1FFF775FC0346002BF1D17B681B68B6
:101F500003F00803002B6ED07B689B69002B56D0E2
:101F60004FF0B043D3F89430FB607B68DA69FB68CC
:101F700003F010039A4231D0FB6803F00203002BF8
:101F800006D0FB6803F00103002B01D10123D0E14F
:101F9000FB6803F00103002B13D0FFF78FFCFEF763
:101FA00091FE786108E0FEF78DFE02467B69D31A48
:101FB000112B01D90323BCE1FFF790FC0346002B52
:101FC000F1D14FF0B043D3F8943023F010027B6886
:101FD000DB694FF0B0411343C1F89430FFF75EFC6A
:101FE000FEF770FE78610CE0000000200400002085
:101FF000FEF768FE02467B69D31A112B01D9032331
:1020000097E1FFF76BFC0346002BF1D013E0FFF7DD
:1020100055FCFEF757FE786108E0FEF753FE0246D6
:102020007B69D31A112B01D9032382E1FFF756FCF8
:102030000346002BF1D17B681B6803F00403002BDF
:1020400000F0D880FFF76CFB0346002B13D1FFF79D
:102050004DFBFEF737FE786108E0FEF733FE0246DF
:102060007B69D31A022B01D9032362E1FFF758FBE6
:102070000346002BF1D07B68DB68002B7BD07B68AC
:10208000DB68852B03D07B68DB68052B09D14FF01B
:10209000B043D3F890304FF0B04243F00403C2F89D
:1020A0009030FEF70FFE78614FF0B043D3F89030D8
:1020B0004FF0B04243F00103C2F890300AE0FEF75F
:1020C00001FE02467B69D31A41F28832934201D95C
:1020D00003232EE1FFF7D1FB0346002BEFD07B68F3
:1020E000DB68812B03D07B68DB68852B21D1FEF771
:1020F000E9FD78614FF0B043D3F890304FF0B04233
:1021000043F08003C2F890300AE0FEF7DBFD0246A0
:102110007B69D31A41F28832934201D9032308E143
:102120004FF0B043D3F8903003F40063002BECD0B1
:1021300060E0FEF7C7FD78614FF0B043D3F8903010
:102140004FF0B04223F08003C2F890300AE0FEF76F
:10215000B9FD02467B69D31A41F28832934201D914
:102160000323E6E04FF0B043D3F8903003F400636C
:10217000002BECD13EE0FEF7A5FD78614FF0B043B7
:10218000D3F890304FF0B04223F08003C2F8903083
:102190000AE0FEF797FD02467B69D31A41F28832C6
:1021A000934201D90323C4E04FF0B043D3F89030F9
:1021B00003F40063002BECD1FEF784FD78614FF04F
:1021C000B043D3F890304FF0B04223F00103C2F88F
:1021D00090300AE0FEF776FD02467B69D31A41F2A1
:1021E0008832934201D90323A3E0FFF746FB03465D
:1021F000002BEFD17B68DB6A002B00F09980FB6934
:102200000C2B6CD07B68DB6A022B4BD1FFF787FC71
:10221000FEF758FD786108E0FEF754FD02467B6941
:10222000D31A0A2B01D9032383E0FFF786FC034668
:10223000002BF1D14FF0B043DA68404B13407A687D
:10224000116B7A68526B11437A68926B12021143D8
:102250007A68D26B11437A68126C11437A68526CB7
:102260000A434FF0B0411343CB60FFF74AFC4FF0F5
:10227000B043DB684FF0B04243F08053D360FEF7C9
:1022800021FD786108E0FEF71DFD02467B69D31A47
:102290000A2B01D903234CE0FFF74FFC0346002B28
:1022A000F1D045E0FFF73BFCFEF70CFD786108E05C
:1022B000FEF708FD02467B69D31A0A2B01D90323D6
:1022C00037E0FFF73AFC0346002BF1D14FF0B04363
:1022D000DA684FF0B0411A4B1340CB6028E07B68BE
:1022E000DB6A012B01D1012323E04FF0B043DB680F
:1022F000BB61BB6903F003027B681B6B9A4215D17B
:10230000BB6903F070027B685B6B9A420ED1BB69BC
:1023100003F4FE427B689B6B1B029A4206D1BB69A9
:1023200003F060427B685B6C9A4201D0012300E0BD
:10233000002318462037BD4680BD00BF8C80C111E8
:10234000FCFFFEEE80B584B000AF786039607B683A
:10235000002B01D101230FE1894B1B6803F0070318
:102360003A689A421BD9864B1B6823F007028449BE
:102370003B6813430B60FEF7A5FCF86008E0FEF72E
:10238000A1FC0246FB68D31A022B01D90323F3E018
:102390007B4B1B6803F007033A689A42EFD17B68D6
:1023A0001B6803F00203002B16D07B689B6818465D
:1023B000FFF72AFBFEF786FCF86008E0FEF782FCD8
:1023C0000246FB68D31A022B01D90323D4E0FFF79E
:1023D000F2FB0346002BF1D07B681B6803F040033F
:1023E000002B16D07B685B691846FFF720FBFEF7D1
:1023F00069FCF86008E0FEF765FC0246FB68D31A4A
:10240000022B01D90323B7E0FFF7E6FB0346002BBD
:10241000F1D07B681B6803F00403002B16D07B68A7
:10242000DB681846FFF719FBFEF74CFCF86008E084
:10243000FEF748FC0246FB68D31A022B01D903239E
:102440009AE0FFF7DBFB0346002BF1D07B681B68AB
:1024500003F00803002B17D07B681B69DB001846CC
:10246000FFF70EFBFEF72EFCF86008E0FEF72AFCF3
:102470000246FB68D31A022B01D903237CE0FFF745
:10248000CEFB0346002BF1D07B681B6803F00103F1
:10249000002B43D07B685B68022B06D1FFF79BF9CA
:1024A0000346002B1ED1012366E07B685B68032B8B
:1024B00006D1FFF742FB0346002B13D101235BE05B
:1024C0007B685B68002B06D1FFF735FA0346002BCB
:1024D00008D1012350E0FFF7ABF90346002B01D1EF
:1024E000012349E07B685B681846FFF76FFAFEF747
:1024F000E9FBF8600AE0FEF7E5FB0246FB68D31A49
:1025000041F28832934201D9032335E0FFF771FA93
:1025100002467B685B689B009A42ECD1184B1B68B3
:1025200003F007033A689A421BD2154B1B6823F04D
:10253000070213493B6813430B60FEF7C3FBF860C7
:1025400008E0FEF7BFFB0246FB68D31A022B01D955
:10255000032311E00A4B1B6803F007033A689A4211
:10256000EFD100F0B3F80346064A1360064B1B6830
:102570001846FEF72FFD034618461037BD4680BDAE
:1025800000400058000000200400002090B587B0F3
:1025900000AF00237B6100233B61FFF72AFAB8609C
:1025A000FFF7FEFA7860BB68002B05D0BB680C2BE8
:1025B00039D17B68012B36D1FFF7CDF90346002BCB
:1025C00015D1FFF7C8F90346012B06D1FFF7D3F960
:1025D00003461B0A03F00F0305E0FFF7D7F9034694
:1025E0001B0A03F00F03364A52F8233014E0FFF7BA
:1025F000B2F90346012B06D1FFF7BDF903461B09CB
:1026000003F00F0305E0FFF7C1F903461B0903F0D0
:102610000F032B4A52F823303B61BB68002B15D1C6
:102620003B697B6112E0BB68042B02D1254B7B61C7
:102630000CE0BB68082B09D1FFF7A0F80346012B7B
:1026400002D1204B7B6101E01F4B7B61FFF7D1F989
:1026500003460C2B2FD1FFF7A3FA78607B68022B7F
:1026600003D07B68032B03D00DE0164BFB600DE01D
:10267000FFF784F80346012B02D1124BFB6005E003
:10268000114BFB6002E03B69FB6000BFFFF766FA9D
:102690000246FB6803FB02F4FFF777FA03461B09C7
:1026A0000133B4FBF3F4FFF765FA03465B0F013324
:1026B000B4FBF3F37B617B6918461C37BD4690BDC4
:1026C000DCA300080024F4000048E80198B500AF3E
:1026D000FFF75CFF0446FFF7E6F903461B0903F02A
:1026E0000F03034A52F82330B4FBF3F3184698BDA6
:1026F0007CA3000898B500AFFFF7E8FF0446FFF79A
:10270000EAF903461B0A034A52F8233024FA03F37A
:10271000184698BDBCA3000898B500AFFFF7D6FFD8
:102720000446FFF7E3F90346DB0A034A52F8233075
:1027300024FA03F3184698BDBCA3000890B585B0F1
:1027400000AF78607B681B0903F00F03104A52F852
:102750002330FB60FFF7B2F903461B0903F00F03B8
:102760000C4A52F82330FA68B2FBF3F3BB60BB6843
:10277000094AA2FB03239C0CFEF7C6FF0346194639
:10278000204600F00BF8034618461437BD4690BDAE
:10279000DCA300087CA3000883DE1B4380B58EB059
:1027A00000AF786039603A4A07F1200392E80300ED
:1027B000186004331980374A07F1180392E80300C0
:1027C000186004331980344A07F10C0307CA83E800
:1027D000070000237B633B68B3F5007F1BD1002318
:1027E0003B6314E03B6B5B0038333B4433F8183CED
:1027F0001A467B68934207D83B6B9B0038333B44B7
:1028000053F82C3C7B6321E03B6B01333B633B6B18
:10281000022BE7D91AE00023FB6214E0FB6A5B009D
:1028200038333B4433F8203C1A467B68934207D840
:10283000FB6A9B0038333B4453F82C3C7B6305E038
:10284000FB6A0133FB62FB6A022BE7D9134B1B685F
:1028500023F0070211497B6B13430B60FEF732FA3A
:10286000B86208E0FEF72EFA0246BB6AD31A022BC2
:1028700001D9032307E0094B1B6803F007037A6BB8
:102880009A42EFD1002318463837BD4680BD00BFBD
:1028900050A2000858A2000860A20008004000589A
:1028A00080B400AF4FF0B043D3F8903003F0020390
:1028B000022B01D1012300E000231846BD4680BC55
:1028C000704780B483B000AF78604FF0B043D3F866
:1028D00088207B681B0CDB431A407B689BB24FF05F
:1028E000B0411343C1F8883000BF0C37BD4680BCEF
:1028F000704780B483B000AF78604FF0B043D3F836
:10290000883023F440724FF0B0417B681343C1F824
:10291000883000BF0C37BD4680BC704780B483B0A0
:1029200000AF78604FF0B043D3F8883023F44062B2
:102930004FF0B0417B681343C1F8883000BF0C37BB
:10294000BD4680BC704780B483B000AF78604FF064
:10295000B043D3F888207B681B0903F47F23DB4353
:102960001A407B681B0103F47F234FF0B0411343EF
:10297000C1F8883000BF0C37BD4680BC704780B4BA
:1029800083B000AF78604FF0B043D3F888207B6805
:102990001B0C1B04DB431A407B681B044FF0B04147
:1029A0001343C1F8883000BF0C37BD4680BC704768
:1029B00080B483B000AF78604FF0B043D3F8883074
:1029C00023F040424FF0B0417B681343C1F8883098
:1029D00000BF0C37BD4680BC704780B483B000AFE9
:1029E00078604FF0B043D3F8883023F040524FF076
:1029F000B0417B681343C1F8883000BF0C37BD4637
:102A000080BC704780B483B000AF78604FF0B043B3
:102A1000D3F8903023F440724FF0B0417B681343F9
:102A2000C1F8903000BF0C37BD4680BC704780B401
:102A300000AF4FF0B043D3F8903003F44073184622
:102A4000BD4680BC704780B400AF4FF0B043D3F8B0
:102A500090304FF0B04243F48033C2F8903000BF62
:102A6000BD4680BC704780B400AF4FF0B043D3F890
:102A700090304FF0B04223F48033C2F8903000BF62
:102A8000BD4680BC7047000080B586B000AF78605E
:102A900000237B610023FB740023BB747B681B68ED
:102AA00003F48033002B58D0FEF720FEFEF70AF91E
:102AB000F86009E0FEF706F90246FB68D31A022B1C
:102AC00002D90323FB7406E07B4B1B6803F480737D
:102AD000B3F5807FEED1FB7C002B3CD1FFF7A7FF45
:102AE00002467B685B6B9A420FD04FF0B043D3F83D
:102AF000903023F440737B61FFF7A5FFFFF7B3FF2E
:102B00004FF0B0427B69C2F890307B6903F002035A
:102B1000002B14D0FEF7D6F8F8600BE0FEF7D2F8E1
:102B20000246FB68D31A41F28832934202D903234A
:102B3000FB7404E0FFF7B4FE0346012BEED1FB7CEF
:102B4000002B05D17B685B6B1846FFF75BFF04E049
:102B5000FB7CBB7401E0FB7CBB747B681B6803F0EF
:102B60000103002B04D07B685B681846FFF7A9FEC1
:102B70007B681B6803F00203002B04D07B689B6812
:102B80001846FFF79EFE7B681B6803F02003002BAE
:102B900004D07B681B691846FFF7C0FE7B681B6882
:102BA00003F40073002B04D07B681B6A1846FFF700
:102BB000E6FE7B681B6803F48063002B04D07B680F
:102BC0005B6A1846FFF7DBFE7B681B6803F4006353
:102BD000002B04D07B689B6A1846FFF7D0FE7B6809
:102BE0001B6803F04003002B04D07B685B69184628
:102BF000FFF7A9FE7B681B6803F08003002B04D05D
:102C00007B689B691846FFF79EFE7B681B6803F490
:102C10008073002B04D07B68DB691846FFF793FEB6
:102C20007B681B6803F01003002B11D07B68DB6806
:102C30001846FFF75EFE7B68DB68B3F5807F07D13F
:102C40004FF0B043DB684FF0B04243F08073D36085
:102C50007B681B6803F40043002B10D07B681B6B60
:102C60001846FFF7A5FE7B681B6B002B07D14FF0C2
:102C7000B043DB684FF0B04243F08073D3607B68B1
:102C80001B6803F48043002B11D07B68DB6A184675
:102C9000FFF7A3FE7B68DB6AB3F1005F07D14FF05B
:102CA000B043DB684FF0B04243F48033D360BB7C69
:102CB00018461837BD4680BD0004005880B584B062
:102CC00000AF78600123FB737B68002B71D07B68B9
:102CD00093F82D30DBB2002B06D17B68002283F8FD
:102CE0002C207868FDF7F8FE7B68022283F82D20FF
:102CF000324BDB6803F01003102B51D02F4BCA224C
:102D00005A622E4B53225A62786800F0E1FA034669
:102D1000FB73FB7B002B3FD1284B9B69274A23F099
:102D20008E6323F040039361244B9A697B68596852
:102D30007B681B6919437B689B690B431F491343DD
:102D40008B617B68DA687B689B681B041B491343B3
:102D50000B611A4BDB6823F4F8527B68596A7B6875
:102D60009B6A0B4315491343CB60786800F0E4FA83
:102D70000346FB73FB7B002B0ED1104B9B6923F0AA
:102D800060427B68196A7B68DB6919437B685B6911
:102D90000B430A4913438B61084BFF225A6201E03F
:102DA0000023FB73FB7B002B03D17B68012283F89C
:102DB0002D20FB7B18461037BD4680BD0028004003
:102DC00090B587B000AFF860B9607A60FB6893F89F
:102DD0002C30012B01D1022388E0FB68012283F80B
:102DE0002C20FB68022283F82D20424BCA225A6213
:102DF000404B53225A62F86800F06AFA0346FB74AB
:102E0000FB7C002B5ED13B4BDB6803F44073B3F5D6
:102E1000807F57D07B68002B25D1364B9B6903F010
:102E20004003002B02D1BB680022DA70BB681B781C
:102E3000184600F0BFFA03461C04BB685B781846CE
:102E400000F0B8FA03461B021C43BB689B78184687
:102E500000F0B0FA034644EA0302BB68DB789B0546
:102E600013437B6117E0234B9B6903F04003002B66
:102E700002D1BB680022DA70BB681B781A04BB68F9
:102E80005B781B021343BA6892781A43BB68DB78FD
:102E90009B0513437B61174A7B6903F07F3323F063
:102EA000FE431360134B9B69124A23F48023936102
:102EB000104B9A69BB68D968BB681B690B430D4905
:102EC00013438B61F86800F037FA0346FB74094B33
:102ED000FF225A62FB7C002B03D1FB68012283F89E
:102EE0002D20FB68002283F82C20FB7C18461C3721
:102EF000BD4690BD0028004090B587B000AFF86097
:102F0000B9607A60FB6893F82C30012B01D1022361
:102F100071E0FB68012283F82C20FB68022283F811
:102F20002D207B68002B0ED1BB685B7803F010036B
:102F3000002B08D0BB685B7823F01003DBB20A33A8
:102F4000DAB2BB685A707B68002B1CD1BB68DB7897
:102F5000184600F02FFA03461C04BB685B7818463D
:102F600000F028FA03461B021C43BB689B781846F6
:102F700000F020FA034644EA0302BB681B785B03B7
:102F800013437B610EE0BB68DB781A04BB685B7897
:102F90001B021343BA6892781A43BB681B785B0321
:102FA00013437B61164BCA225A62154B53225A6255
:102FB000F86800F08DF90346FB74FB7C002B0BD105
:102FC0000F4A7B6923F07F4323F0C0035360F86806
:102FD00000F0B2F90346FB74094BFF225A62FB7CF6
:102FE000002B03D1FB68012283F82D20FB6800220F
:102FF00083F82C20FB7C18461C37BD4690BD00BFD3
:103000000028004090B587B000AFF860B9607A60E2
:1030100000237B61FB6893F82C30012B01D1022344
:10302000F3E0FB68012283F82C20FB68022283F87E
:103030002D20784BDB6803F440733B613B69B3F5AB
:10304000807F6AD07B68002B3AD1724B9B6903F07A
:103050004003002B02D1BB680022DA70BB685B69B9
:10306000B3F1004FBB681B78184600F0A3F9034684
:103070001C04BB685B78184600F09CF903461B02F1
:103080001C43BB689B78184600F094F9034644EA59
:103090000302BB68DB789B0542EA0304BB6893F834
:1030A0002430184600F086F903461B0644EA030262
:1030B000BB681B6A1A43BB685B6913437B612CE0E6
:1030C000BB685B69B3F1803F0DD0BB685B69B3F54A
:1030D000000F08D04F4B9B6903F04003002B02D137
:1030E000BB680022DA70BB681B781A04BB685B7887
:1030F0001B021343BA6892781A43BB68DB789B05BE
:103100001A43BB6893F824301B061A43BB681B6A3A
:103110001A43BB685B6913437B613E4BCA225A6208
:103120003C4B53225A62BB689B6AB3F5807F2CD11B
:10313000384B9B69374A23F488539361354B0122FE
:10314000DA653B69B3F5807F07D1BB689A69BB68D4
:10315000DB69304913434B6406E02E4A7B691364F4
:103160002C4ABB689B6953642A4ABB685B68136737
:10317000FB681B6B43F00102FB681A63254B9B69DC
:10318000244A43F4885393612BE0224B9B69214AE4
:1031900023F4085393611F4B0222DA653B69B3F5B0
:1031A000807F07D1BB689A69BB68DB691949134303
:1031B000CB6406E0174A7B699364164ABB689B6937
:1031C000D364144ABB685B685367FB681B6B43F0AE
:1031D0000202FB681A630F4B9B690E4A43F40853C3
:1031E00093610D4BD3F880300B4A43F40033C2F89F
:1031F0008030084BFF225A62FB68012283F82D20A1
:10320000FB68002283F82C20002318461C37BD469B
:1032100090BD00BF002800400008005880B584B071
:1032200000AF7860114B5A6D7B681B6B1340FB60DD
:10323000FB6803F00103002B05D00C4B0122DA657B
:10324000786800F015F8FB6803F00203002B05D046
:10325000064B0222DA65786800F0CBF87B68012221
:1032600083F82D2000BF1037BD4680BD00280040E8
:1032700080B483B000AF786000BF0C37BD4680BC1F
:103280007047000080B584B000AF78600F4BDB68FA
:103290000E4A23F02003D360FDF714FDF86009E027
:1032A000FDF710FD0246FB68D31AB3F57A7F01D90A
:1032B000032306E0054BDB6803F02003002BEFD06F
:1032C000002318461037BD4680BD00BF00280040CF
:1032D00080B584B000AF78600023FB73154BDB68CA
:1032E00003F04003002B20D1124BDB68114A43F05E
:1032F0008003D360FDF7E6FCB8600DE0FDF7E2FC6B
:103300000246BB68D31AB3F57A7F05D90323FB7352
:103310007B68032283F82D20064BDB6803F0400313
:10332000002B02D1FB7B032BE8D1FB7B1846103727
:10333000BD4680BD0028004080B584B000AF7860F5
:103340000023FB731A4BDB68194A23F08003D36018
:10335000174B9B6903F02003002B0CD17868FFF713
:1033600091FF0346002B1ED07B68032283F82D209B
:103370000323FB7317E00E4B9B690D4A23F02003D8
:1033800093617868FFF77EFF0346002B05D07B68CA
:10339000032283F82D200323FB73054B9B69044A0A
:1033A00043F020039361FB7B18461037BD4680BD78
:1033B0000028004080B485B000AF0346FB710023B5
:1033C000FB60FB79FB7205E0FB680133FB60FB7A75
:1033D0000A3BFB72FB7A092BF6D8FB68DBB21B01B8
:1033E000DAB2FB7A1343DBB218461437BD4680BC11
:1033F000704780B483B000AF786000BF0C37BD4623
:1034000080BC704780B483B000AF7860064B9B6887
:1034100023F4006204497B6813438B6000BF0C37C0
:10342000BD4680BC704700BF0004005880B400AFA8
:10343000054BD3F89030044A43F40043C2F890306F
:1034400000BFBD4680BC70470004005880B400AF88
:10345000054BD3F89030044A23F40043C2F890306F
:1034600000BFBD4680BC70470004005880B400AF68
:10347000034B4FF400629A6100BFBD4680BC7047A9
:103480000004005880B400AF064B5B6903F00203F0
:10349000022B01D1012300E000231846BD4680BC69
:1034A000704700BF0004005880B400AF064B5B6952
:1034B00003F00403042B01D1012300E0002318468C
:1034C000BD4680BC704700BF0004005880B400AF08
:1034D0004FF0B043D3F894304FF0B04223F40043A0
:1034E000C2F8943000BFBD4680BC704780B400AFC6
:1034F0004FF0B043D3F8943003F48043B3F5804FDA
:1035000001D1012300E000231846BD4680BC70476E
:1035100080B483B000AF7860064BD3F890200549A3
:103520007B681343C1F8903000BF0C37BD4680BCA8
:10353000704700BF0008005880B584B000AF7860C5
:103540007B68002B03D10123FB73FB7B52E000233C
:10355000FB737B689B79BB73BB7B002B02D0BB7B6F
:10356000032B09D17B6800225A717868FDF7E8FACD
:103570004FF48050FFF7CCFFBB7B002B26D17B683C
:1035800002229A71FFF7A2FF1C4B1A681346DB0058
:103590009B1A9B00DB0C642202FB03F3BB60BB683D
:1035A000002B05D10123FB737B6801229A6007E0A1
:1035B000BB68013BBB60FFF799FF0346002BEED1D0
:1035C000FFF734FF4FF40060FFF71CFFFFF74EFFDB
:1035D000FB7B002B0AD17B681B68184600F0BCFA05
:1035E0007B6801221A717B6800229A607B68012245
:1035F0009A71FB7B18461037BD4680BD0000002045
:1036000080B586B000AFF8607A601A460B467B81C1
:1036100013463B81FB689B79DBB2012B4AD1FB68E7
:103620005B79012B01D1022345E0FB6801225A712D
:10363000FB6802229A71F86800F05CFBFFF706FF56
:103640000D21F86800F0A8FA7B891B0A9BB2DBB257
:103650001946F86800F0A0FA7B89DBB21946F868D1
:1036600000F09AFA0023BB820AE0BB8A7A6813440E
:103670001B781946F86800F08FFABB8A0133BB82C9
:10368000BA8A3B899A42F0D3FFF7D0FEF86800F07F
:1036900055FBFB689B68002B02D00123FB7501E002
:1036A0000023FB75FB6801229A71FB6800225A71A6
:1036B000FB7D00E0022318461837BD4680BD80B56B
:1036C00088B000AFF8607A601A460B467B811346DB
:1036D0003B817B68BB61FB689B79DBB2012B4AD1E4
:1036E000FB685B79012B01D1022345E0FB680122D5
:1036F0005A71F86800F0FEFAFFF7A8FE1D21F8687D
:1037000000F04AFA7B891B0A9BB2DBB21946F868C3
:1037100000F042FA7B89DBB21946F86800F03CFA07
:103720000021F86800F038FA0023FB8209E0B9694B
:10373000F86800F087FABB690133BB61FB8A01338B
:10374000FB82FA8A3B899A42F1D3FFF76FFEF86851
:1037500000F0F4FAFB689B68002B02D00123FB7792
:1037600001E00023FB77FB6801229A71FB680022CD
:103770005A71FB7F00E0022318462037BD4680BD0A
:1037800080B586B000AFF8607A601A460B46FB72CF
:1037900013463B81FB689B79DBB2012B4AD1FB6866
:1037A0005B79012B01D1022345E0FB6801225A71AC
:1037B000F86800F09FFAFB7A842B02D0FB7A942BF6
:1037C00003D1FB6801221A7102E0FB6800221A7122
:1037D000FFF73CFEFB7A1946F86800F0DDF900239C
:1037E000BB820AE0BB8A7A6813441B781946F868E2
:1037F00000F0D2F9BB8A0133BB82BA8A3B899A4274
:10380000F0D3FFF713FEFB7A842B02D0F86800F0A8
:1038100095FAFB689B68002B02D00123FB7501E041
:103820000023FB75FB6801229A71FB6800225A7124
:10383000FB7D00E0022318461837BD4680BD80B5E9
:1038400088B000AFF8607A601A460B46FB721346E8
:103850003B817B68BB61FB689B79DBB2012B3DD16F
:10386000FB685B79012B01D1022338E0FB68012260
:103870005A71F86800F03EFAFFF7E8FDFB7A194646
:10388000F86800F089F90021F86800F085F9002354
:10389000FB8209E0B969F86800F0D4F9BB6901332B
:1038A000BB61FB8A0133FB82FA8A3B899A42F1D3DE
:1038B000FFF7BCFDF86800F041FAFB689B68002B3D
:1038C00002D00123FB7701E00023FB77FB68012294
:1038D0009A71FB6800225A71FB7F00E002231846B0
:1038E0002037BD4680BD80B586B000AFF8607A60F5
:1038F0001A460B46FB7213463B81FB689B79DBB291
:10390000012B3ED1FB685B79012B01D1022339E009
:10391000FB6801225A71F86800F0ECF9FFF796FD98
:103920000E21F86800F038F9FB7A1946F86800F0C3
:1039300033F90023BB820AE0BB8A7A6813441B7800
:103940001946F86800F028F9BB8A0133BB82BA8AAD
:103950003B899A42F0D3FFF769FDF86800F0EEF971
:10396000FB689B68002B02D00123FB7501E000235C
:10397000FB75FB6801229A71FB6800225A71FB7D7E
:1039800000E0022318461837BD4680BD80B588B0D8
:1039900000AFF8607A601A460B46FB7213463B8113
:1039A0007B68BB61FB689B79DBB2012B41D1FB6873
:1039B0005B79012B01D102233CE0FB6801225A71A3
:1039C000F86800F097F9FFF741FD1E21F86800F054
:1039D000E3F8FB7A1946F86800F0DEF80021F86891
:1039E00000F0DAF80023FB8209E0B969F86800F01A
:1039F00029F9BB690133BB61FB8A0133FB82FA8A77
:103A00003B899A42F1D3FFF711FDF86800F096F96F
:103A1000FB689B68002B02D00123FB7701E00023A9
:103A2000FB77FB6801229A71FB6800225A71FB7FC9
:103A300000E0022318462037BD4680BD80B584B023
:103A400000AF78600023BB8107F10C020223122132
:103A50007868FFF7F4FE3B7BFB81B7F90E301B0261
:103A60001AB27B7B1BB213431BB2FB8107F10C0222
:103A7000022302217868FFF783FEFB8903F001032C
:103A8000002B02D0786804F063FEFB895B0803F02A
:103A90000103002B08D0FB899B0903F00103002BD5
:103AA00002D1786804F062FEFB899B0803F00103F1
:103AB000002B02D0786804F0B1FEFB89DB0803F02C
:103AC0000103002B02D0786804F0B6FEFB891B09C5
:103AD00003F00103002B02D0786804F0BBFEFB89E1
:103AE0005B0903F00103002B02D0786804F088FE24
:103AF000FB899B0903F00103002B02D0786804F0D6
:103B000043FEFB89DB0903F00103002B0ED0FB8988
:103B10001B0A03F00103002B04D00121786804F094
:103B200041FE03E00021786804F03CFEFB895B0A5B
:103B300003F00103002B02D0786804F051FEFB89EA
:103B40009B0B03F00103002B02D0786804F090FE79
:103B500000BF1037BD4680BD80B483B000AF786031
:103B60000C4B1B680B4A23F040031360094A7B6827
:103B700043F441731360074B4FF4B8525A60054B3E
:103B80001B68044A43F04003136000BF0C37BD4676
:103B900080BC70470000015880B487B000AF7860E7
:103BA0000B46FB700023FB75234B1A681346DB00A2
:103BB0009B1A9B00DB0C642202FB03F3FB60FB6897
:103BC000002B05D10123FB757B6801229A6008E078
:103BD000FB68013BFB60194B9B6803F00203022B5F
:103BE000EDD1174B3B613B69FA781A70124B1A689A
:103BF0001346DB009B1A9B00DB0C642202FB03F3E1
:103C0000FB60FB68002B05D10123FB757B6801225B
:103C10009A6008E0FB68013BFB60084B9B6803F07F
:103C20000103012BEDD1054BDB68FB7D18461C37EA
:103C3000BD4680BC704700BF000000200000015856
:103C40000C00015880B487B000AF78603960002361
:103C5000FB75254B1A681346DB009B1A9B00DB0C97
:103C6000642202FB03F3FB60FB68002B05D10123F8
:103C7000FB757B6801229A6008E0FB68013BFB60F2
:103C80001A4B9B6803F00203022BEDD1184B3B61EA
:103C90003B69FF221A70144B1A681346DB009B1A0B
:103CA0009B00DB0C642202FB03F3FB60FB68002B30
:103CB00005D10123FB757B6801229A6008E0FB684F
:103CC000013BFB60094B9B6803F00103012BEDD125
:103CD000064BDB68DAB23B681A70FB7D18461C376E
:103CE000BD4680BC704700BF0000002000000158A6
:103CF0000C00015880B584B000AF78607B681B79F8
:103D0000012B11D10C4B1A6813465B001344DB00E6
:103D10001B0CFB60FFF79AFBFB68013BFB60FB6839
:103D2000002BF9D1FFF782FB786800F007F8034613
:103D300018461037BD4680BD0000002080B586B013
:103D400000AF78600023FB75124B1A6813465B00C6
:103D50001344DB001B0D642202FB03F3FB60FFF73F
:103D6000A3FB3861FB68002B05D10123FB757B6841
:103D700002229A6009E0FB68013BFB60FFF782FBCF
:103D800002463B691340012BE9D0FB7D18461837EA
:103D9000BD4680BD0000002080B582B000AF7860D5
:103DA0007B68002B01D1012349E07B6893F83D300B
:103DB000DBB2002B06D17B68002283F83C207868B8
:103DC000FCF7D1FE7B68022283F83D207B681A68ED
:103DD0007B6804331946104600F0FEF87B68012228
:103DE00083F848207B68012283F83E207B6801220B
:103DF00083F83F207B68012283F840207B68012202
:103E000083F841207B68012283F842207B680122ED
:103E100083F843207B68012283F844207B680122D9
:103E200083F845207B68012283F846207B680122C5
:103E300083F847207B68012283F83D200023184641
:103E40000837BD4680BD80B584B000AF786039606A
:103E50000023FB737B6893F83C30012B01D10223D4
:103E6000B6E07B68012283F83C207B68022283F85D
:103E70003D207B681B689B68BB60BB6823F44413D0
:103E800023F07703BB60BB6823F47F43BB607B6890
:103E90001B68BA689A603B681B68B3F5005F3ED048
:103EA000B3F5005F00F28780B3F5805F00F0868095
:103EB000B3F5805F7FD8702B1AD0702B7BD8602B26
:103EC00050D0602B77D8502B3CD0502B73D8402B40
:103ED00058D0402B6FD8302B64D0302B6BD8202B90
:103EE00060D0202B67D8002B5CD0102B5AD062E01A
:103EF0007B6818683B6899683B685A683B68DB6870
:103F000000F051F97B681B689B68BB60BB6843F09D
:103F10007703BB607B681B68BA689A604FE07B6878
:103F200018683B6899683B685A683B68DB6800F032
:103F30003AF97B681B689A687B681B6842F4804288
:103F40009A603CE07B6818683B6859683B68DB68AE
:103F50001A4600F0AFF87B681B685021184600F045
:103F600006F92CE07B6818683B6859683B68DB6899
:103F70001A4600F0CDF87B681B686021184600F0F7
:103F8000F6F81CE07B6818683B6859683B68DB689A
:103F90001A4600F08FF87B681B684021184600F035
:103FA000E6F80CE07B681A683B681B681946104607
:103FB00000F0DDF803E00123FB7300E000BF7B6845
:103FC000012283F83D207B68002283F83C20FB7BA4
:103FD00018461037BD4680BD80B485B000AF78600C
:103FE00039607B681B68FB607B682F4A934203D073
:103FF0007B68B3F1804F08D1FB6823F07003FB604E
:104000003B685B68FA681343FB607B68264A93420F
:104010000BD07B68B3F1804F07D07B68234A934273
:1040200003D07B68224A934208D1FB6823F4407393
:10403000FB603B68DB68FA681343FB60FB6823F0B6
:1040400080023B685B691343FB607B68FA681A6017
:104050003B689A687B68DA623B681A687B689A6298
:104060007B68114A934207D07B68104A934203D081
:104070007B680F4A934203D13B681A697B681A63D5
:104080007B6801225A617B681B6903F00103012BE5
:1040900005D17B681B6923F001027B681A6100BFB0
:1040A0001437BD4680BC7047002C014000440140DD
:1040B0000048014080B487B000AFF860B9607A6012
:1040C000FB681B6A7B61FB681B6A23F00102FB68CB
:1040D0001A62FB689B693B613B6923F0F0033B611B
:1040E0007B681B013A6913433B617B6923F00A0338
:1040F0007B617A69BB6813437B61FB683A699A61AB
:10410000FB687A691A6200BF1C37BD4680BC7047E5
:1041100080B487B000AFF860B9607A60FB681B6A52
:104120007B61FB681B6A23F01002FB681A62FB6864
:104130009B693B613B6923F470433B617B681B03D4
:104140003A6913433B617B6923F0A0037B61BB6841
:104150001B017A6913437B61FB683A699A61FB68CA
:104160007A691A6200BF1C37BD4680BC704780B4B4
:1041700085B000AF786039607B689B68FB60FB6846
:1041800023F4401323F07003FB603A68FB68134389
:1041900043F00703FB607B68FA689A6000BF14373E
:1041A000BD4680BC704780B487B000AFF860B9608E
:1041B0007A603B60FB689B687B617B6923F47F438B
:1041C0007B613B681A027B681A43BB6813437A69B8
:1041D00013437B61FB687A699A6000BF1C37BD4658
:1041E00080BC704780B485B000AF786039607B6870
:1041F00093F83C30012B01D102234AE07B68012275
:1042000083F83C207B68022283F83D207B681B6892
:104210005B68FB607B681B689B68BB607B681B6896
:104220001E4A934208D1FB6823F47003FB603B688D
:104230005B68FA681343FB60FB6823F07003FB6064
:104240003B681B68FA681343FB607B681B68FA686D
:104250005A607B681B68114A934204D07B681B68D4
:10426000B3F1804F0CD1BB6823F08003BB603B6887
:104270009B68BA681343BB607B681B68BA689A6026
:104280007B68012283F83D207B68002283F83C2074
:10429000002318461437BD4680BC7047002C0140EF
:1042A00080B483B000AF78604FF0B043D3F888207B
:1042B0007B681A407B681B04134318460C37BD46C5
:1042C00080BC704780B483B000AF78604FF0B043DB
:1042D000D3F888207B68134018460C37BD4680BC55
:1042E000704780B582B000AF78607B68002B01D149
:1042F000012342E07B68D3F88830002B06D17B682D
:10430000002283F884207868FCF73EFC7B68242236
:10431000C3F888207B681B681A687B681B6822F0DA
:1043200001021A607B689B6A002B02D0786800F05B
:1043300065FE786800F0EEFB0346012B01D10123F6
:104340001BE07B681B685A687B681B6822F49042FC
:104350005A607B681B689A687B681B6822F02A0297
:104360009A607B681B681A687B681B6842F00102D0
:104370001A60786800F0E3FE034618460837BD4629
:1043800080BD80B58AB002AFF860B9603B6013466B
:10439000FB80FB68D3F88830202B73D1BB68002BDF
:1043A00002D0FB88002B01D101236CE0FB680022C6
:1043B000C3F89020FB682122C3F88820FCF782FC18
:1043C0007861FB68FA88A3F85420FB68FA88A3F8A0
:1043D0005620FB689B68B3F5805F08D1FB681B69BA
:1043E000002B04D10023FB61BB68BB6103E0BB6809
:1043F000FB610023BB612CE03B6800937B690022DA
:104400008021F86800F0E9FE0346002B01D0032369
:1044100039E0FB69002B0BD1BB691B881A46FB688E
:104420001B68C2F308029A62BB690233BB6107E0F2
:10443000FB691A78FB681B689A62FB690133FB61B0
:10444000FB68B3F856309BB2013B9AB2FB68A3F805
:104450005620FB68B3F856309BB2002BCCD13B689A
:1044600000937B6900224021F86800F0B6FE034605
:10447000002B01D0032306E0FB682022C3F888202C
:10448000002300E0022318462037BD4680BD00000F
:1044900080B5BAB000AF78607B681B68DB69C7F88D
:1044A000E4307B681B681B68C7F8E0307B681B68DA
:1044B0009B68C7F8DC30D7F8E42040F60F031340C0
:1044C000C7F8D830D7F8D830002B1BD1D7F8E43054
:1044D00003F02003002B15D0D7F8E03003F02003C1
:1044E000002B05D1D7F8DC3003F08053002B09D026
:1044F0007B685B6F002B00F0E3827B685B6F786802
:104500009847DDE2D7F8D830002B00F02381D7F8A8
:10451000DC208D4B1340002B06D1D7F8E0208B4BCD
:104520001340002B00F01681D7F8E43003F00103AC
:10453000002B11D0D7F8E03003F48073002B0BD0A0
:104540007B681B6801221A627B68D3F8903043F0C5
:1045500001027B68C3F89020D7F8E43003F002032F
:10456000002B11D0D7F8DC3003F00103002B0BD067
:104570007B681B6802221A627B68D3F8903043F094
:1045800004027B68C3F89020D7F8E43003F00403FA
:10459000002B11D0D7F8DC3003F00103002B0BD037
:1045A0007B681B6804221A627B68D3F8903043F062
:1045B00002027B68C3F89020D7F8E43003F00803C8
:1045C000002B17D0D7F8E03003F02003002B05D1E3
:1045D000D7F8DC205C4B1340002B0BD07B681B68AA
:1045E00008221A627B68D3F8903043F008027B6897
:1045F000C3F89020D7F8E43003F40063002B12D006
:10460000D7F8E03003F08063002B0CD07B681B6888
:104610004FF400621A627B68D3F8903043F02002B6
:104620007B68C3F890207B68D3F89030002B00F0B3
:104630004982D7F8E43003F02003002B13D0D7F8D9
:10464000E03003F02003002B05D1D7F8DC3003F075
:104650008053002B07D07B685B6F002B03D07B68F7
:104660005B6F786898477B68D3F89030C7F8D43090
:104670007B681B689B6803F04003402B05D0D7F88C
:10468000D43003F02803002B54D0786800F073FE78
:104690007B681B689B6803F04003402B46D17B6816
:1046A0001B680833C7F89C30D7F89C3053E8003FAC
:1046B000C7F89830D7F8983023F04003C7F8D030C7
:1046C0007B681B680833D7F8D020C7F8A820C7F844
:1046D000A430D7F8A410D7F8A82041E80023C7F8E1
:1046E000A030D7F8A030002BD9D17B68D3F8803028
:1046F000002B17D07B68D3F88030154A9A637B680B
:10470000D3F880301846FCF71AFE0346002B19D068
:104710007B68D3F880309B6B7A68D2F88020104693
:1047200098470FE0786800F0E0F90BE0786800F057
:10473000DCF907E0786800F0D8F97B680022C3F85C
:104740009020BFE100BFBDE1010000102001000486
:10475000415400087B68DB6E012B40F05381D7F891
:10476000E43003F01003002B00F04C81D7F8E03068
:1047700003F01003002B00F045817B681B681022BA
:104780001A627B681B689B6803F04003402B40F073
:10479000BB807B68D3F880301B685B68A7F8BE30AD
:1047A000B7F8BE30002B00F08F817B68B3F85C3027
:1047B000B7F8BE209A4280F087817B68B7F8BE20A8
:1047C000A3F85E207B68D3F880301B681B6803F079
:1047D0002003002B40F087807B681B68C7F8883077
:1047E000D7F8883053E8003FC7F88430D7F88430D2
:1047F00023F48073C7F8B8307B681B681A46D7F873
:10480000B830C7F89430C7F89020D7F89010D7F890
:10481000942041E80023C7F88C30D7F88C30002B67
:10482000DAD17B681B6808337B677B6F53E8003FF6
:104830003B673B6F23F00103C7F8B4307B681B680C
:104840000833D7F8B420C7F88020FB67F96FD7F892
:10485000802041E80023BB67BB6F002BE1D17B6860
:104860001B6808333B663B6E53E8003FFB65FB6DFE
:1048700023F04003C7F8B0307B681B680833D7F8D3
:10488000B020FA66BB66B96EFA6E41E800237B661B
:104890007B6E002BE3D17B682022C3F88C207B68E1
:1048A0000022DA667B681B68FB64FB6C53E8003F00
:1048B000BB64BB6C23F01003C7F8AC307B681B688B
:1048C0001A46D7F8AC30BB657A65796DBA6D41E8A8
:1048D00000233B653B6D002BE4D17B68D3F880302F
:1048E0001846FCF7CEFC7B6802221A677B68B3F897
:1048F0005C207B68B3F85E309BB2D31A9BB219463A
:10490000786800F0FBF8DFE07B68B3F85C207B6838
:10491000B3F85E309BB2D31AA7F8CE307B68B3F8F9
:104920005E309BB2002B00F0D180B7F8CE30002B68
:1049300000F0CC807B681B68BB63BB6B53E8003F17
:104940007B637B6B23F49073C7F8C8307B681B686C
:104950001A46D7F8C8307B643A64396C7A6C41E8FF
:104960000023FB63FB6B002BE4D17B681B680833DF
:104970007B627B6A53E8003F3B623B6A23F08053D3
:1049800023F00103C7F8C4307B681B680833D7F8ED
:10499000C4203A63FB62F96A3A6B41E80023BB62C8
:1049A000BB6A002BE1D17B682022C3F88C207B6896
:1049B0000022DA667B6800225A677B681B683B61CD
:1049C0003B6953E8003FFB60FB6823F01003C7F826
:1049D000C0307B681B681A46D7F8C030FB61BA61EB
:1049E000B969FA6941E800237B617B69002BE4D156
:1049F0007B6802221A67B7F8CE301946786800F053
:104A00007DF863E0D7F8E43003F48013002B0ED078
:104A1000D7F8DC3003F48003002B08D07B681B68D8
:104A20004FF480121A62786800F04BFD51E0D7F81D
:104A3000E43003F08003002B14D0D7F8E03003F00B
:104A40008003002B05D1D7F8DC3003F40003002BE2
:104A500008D07B689B6F002B3AD07B689B6F78688F
:104A6000984735E0D7F8E43003F04003002B09D035
:104A7000D7F8E03003F04003002B03D0786800F053
:104A8000F5FC26E0D7F8E43003F40003002B09D04E
:104A9000D7F8E03003F08043002B03D0786800F0B3
:104AA00022FD16E0D7F8E43003F08073002B10D01D
:104AB000D7F8E030002B0CDA786800F00BFD08E046
:104AC00000BF06E000BF04E000BF02E000BF00E05E
:104AD00000BFE837BD4680BD80B483B000AF7860CA
:104AE00000BF0C37BD4680BC704780B483B000AFB8
:104AF000786000BF0C37BD4680BC704780B483B07F
:104B000000AF78600B467B8000BF0C37BD4680BC91
:104B1000704700002DE9B04F8CB000AF78610023E2
:104B200087F82A307B699A687B691B691A437B691D
:104B30005B691A437B69DB691343FB627B691B6812
:104B40001A68944B13407A691268F96A0B43136030
:104B50007B691B685B6823F440517B69DA687B6979
:104B60001B680A435A607B699B69FB627B691B680F
:104B7000894A934204D07B691B6AFA6A1343FB6239
:104B80007B691B689B6823F06E4323F430637A696A
:104B90001268F96A0B4393607B691B68DB6A23F038
:104BA0000F017B695A6A7B691B680A43DA627B6979
:104BB0001B687A4A934227D10320FFF771FB034613
:104BC000A3F54033032B1BD801A252F823F000BFFA
:104BD000E14B0008F14B0008E94B0008F94B0008D5
:104BE000012387F82B3080E0022387F82B307CE00C
:104BF000042387F82B3078E0082387F82B3074E003
:104C0000102387F82B3070E07B691B68644A93425D
:104C100038D10C20FFF744FB0346A3F540230C2BAF
:104C20002CD801A252F823F05D4C00087D4C0008FE
:104C30007D4C00087D4C00086D4C00087D4C000840
:104C40007D4C00087D4C0008654C00087D4C000838
:104C50007D4C00087D4C0008754C0008002387F847
:104C60002B3042E0022387F82B303EE0042387F804
:104C70002B303AE0082387F82B3036E0102387F8F2
:104C80002B3032E07B691B68434A93422AD14FF4B0
:104C90004060FFF717FB0346B3F5406F1AD0B3F53A
:104CA000406F1BD8B3F5006F0CD0B3F5006F15D86B
:104CB000002B03D0B3F5806F08D00FE0002387F8F6
:104CC0002B3012E0022387F82B300EE0042387F804
:104CD0002B300AE0082387F82B3006E0102387F8F2
:104CE0002B3002E0102387F82B307B691B682A4A9F
:104CF000934240F0A48097F82B30082B23D801A2D0
:104D000052F823F0294D0008474D0008314D0008A6
:104D1000474D0008374D0008474D0008474D000833
:104D2000474D00083F4D0008FDF7E4FC786210E0B5
:104D30001C4B7B620DE0FDF729FC786209E04FF423
:104D400000437B6205E000237B62012387F82A3061
:104D500000BF7B6A002B00F037817B695B6A124AD7
:104D600032F813301A467B6AB3FBF2F3BB617B69FE
:104D70005A6813465B001344BA699A4205D37B69AB
:104D80005B681B03BA699A4210D9012387F82A305D
:104D90001AE100BFF369FFCF0080004000380140F6
:104DA000004400400024F40048A400087B6A00226C
:104DB000BB60FA607B695B6A8E4A32F813309BB243
:104DC00000223B607A60D7E90023D7E90201FBF7B4
:104DD00027FA02460B46104619464FF000024FF0E4
:104DE00000030B0243EA106302027969496849082B
:104DF00000200C46054612EB040843EB05097B69CD
:104E00005B6800229A46934652465B4640464946B6
:104E1000FBF706FA02460B4613463B623B6AB3F5C4
:104E2000407F08D33B6AB3F5801F04D27B691B68BF
:104E30003A6ADA60C8E0012387F82A30C4E07B6967
:104E4000DB69B3F5004F67D197F82B30082B28D8D2
:104E500001A252F823F000BF7D4E0008854E0008E5
:104E60008D4E0008A34E0008934E0008A34E000884
:104E7000A34E0008A34E00089B4E0008FDF73AFC25
:104E8000786214E0FDF748FC786210E05A4B7B62D0
:104E90000DE0FDF77BFB786209E04FF400437B6295
:104EA00005E000237B62012387F82A3000BF7B6A7C
:104EB000002B00F089807B695B6A4E4A32F8133020
:104EC0001A467B6AB3FBF2F35A007B695B685B08A6
:104ED0001A447B695B68B2FBF3F33B623B6A0F2BBE
:104EE00016D93B6AB3F5803F12D23B6A9BB223F0DE
:104EF0000F03FB833B6A5B089BB203F007039AB284
:104F0000FB8B1343FB837B691B68FA8BDA605BE0E6
:104F1000012387F82A3057E097F82B30082B28D840
:104F200001A252F823F000BF4D4F0008554F000872
:104F30005D4F0008734F0008634F0008734F00086F
:104F4000734F0008734F00086B4F0008FDF7D2FB4A
:104F5000786214E0FDF7E0FB786210E0264B7B629C
:104F60000DE0FDF713FB786209E04FF400437B622C
:104F700005E000237B62012387F82A3000BF7B6AAB
:104F8000002B21D07B695B6A1A4A32F813301A462B
:104F90007B6AB3FBF2F27B695B685B081A447B694E
:104FA0005B68B2FBF3F33B623B6A0F2B09D93B6AA8
:104FB000B3F5803F05D23B6A9AB27B691B68DA6021
:104FC00002E0012387F82A307B690122A3F86A20D6
:104FD0007B690122A3F868207B6900225A677B69FC
:104FE00000229A6797F82A3018463037BD46BDE848
:104FF000B08F00BF48A400080024F40080B483B040
:1050000000AF78607B689B6A03F00803002B0AD02E
:105010007B681B685B6823F400417B689A6B7B6844
:105020001B680A435A607B689B6A03F00103002BEC
:105030000AD07B681B685B6823F400317B68DA6AFE
:105040007B681B680A435A607B689B6A03F0020313
:10505000002B0AD07B681B685B6823F480317B6877
:105060001A6B7B681B680A435A607B689B6A03F073
:105070000403002B0AD07B681B685B6823F4802143
:105080007B685A6B7B681B680A435A607B689B6A23
:1050900003F01003002B0AD07B681B689B6823F485
:1050A00080517B68DA6B7B681B680A439A607B6877
:1050B0009B6A03F02003002B0AD07B681B689B6867
:1050C00023F400517B681A6C7B681B680A439A6062
:1050D0007B689B6A03F04003002B1AD07B681B6837
:1050E0005B6823F480117B685A6C7B681B680A43F9
:1050F0005A607B685B6CB3F5801F0AD17B681B68C4
:105100005B6823F4C0017B689A6C7B681B680A4368
:105110005A607B689B6A03F08003002B0AD07B688F
:105120001B685B6823F400217B68DA6C7B681B6872
:105130000A435A6000BF0C37BD4680BC704780B53B
:1051400086B002AF78607B680022C3F89020FBF73E
:10515000B9FDF8607B681B681B6803F00803082B27
:105160000ED16FF07E430093FB6800224FF40011D4
:10517000786800F032F80346002B01D0032328E0C2
:105180007B681B681B6803F00403042B0ED16FF0CF
:105190007E430093FB6800224FF48001786800F0A2
:1051A0001CF80346002B01D0032312E07B68202269
:1051B000C3F888207B682022C3F88C207B680022FB
:1051C000DA667B6800221A677B68002283F88420F5
:1051D000002318461037BD4680BD80B59CB000AF97
:1051E000F860B9603B601346FB71AFE0BB6FB3F191
:1051F000FF3F00F0AB80FBF765FD02463B68D31A2A
:10520000BA6F9A4202D3BB6F002B40D1FB681B6878
:105210003B653B6D53E8003FFB64FB6C23F4D073AC
:105220007B66FB681B681A467B6EFB65BA65B96DC9
:10523000FA6D41E800237B657B6D002BE6D1FB68AE
:105240001B680833FB63FB6B53E8003FBB63BB6B1E
:1052500023F001033B66FB681B6808333A6EBA64AF
:105260007B64796CBA6C41E800233B643B6C002B97
:10527000E5D1FB682022C3F88820FB682022C3F810
:105280008C20FB68002283F8842003236FE0FB68F6
:105290001B681B6803F00403002B57D0BB68802BEE
:1052A00054D0BB68402B51D0FB681B68DB6903F40A
:1052B0000063B3F5006F49D1FB681B684FF40062CF
:1052C0001A62FB681B68BB62BB6A53E8003F7B62E3
:1052D0007B6A23F4D073FB66FB681B681A46FB6E7F
:1052E0007B633A63396B7A6B41E80023FB62FB6AAC
:1052F000002BE6D1FB681B6808337B617B6953E8B0
:10530000003F3B613B6923F00103BB66FB681B6800
:105310000833BA6E3A62FB61F9693A6A41E80023E0
:10532000BB61BB69002BE5D1FB682022C3F8882054
:10533000FB682022C3F88C20FB682022C3F8902051
:10534000FB68002283F88420032310E0FB681B68BD
:10535000DA69BB681340BA689A420CBF0123002384
:10536000DBB21A46FB799A423FF440AF002318465D
:105370007037BD4680BD80B495B000AF78607B6863
:105380001B687B637B6B53E8003F3B633B6B23F401
:105390009073FB647B681B681A46FB6C3B64FA6382
:1053A000F96B3A6C41E80023BB63BB6B002BE6D181
:1053B0007B681B6808333B623B6A53E8003FFB6134
:1053C000FB6923F0805323F00103BB647B681B68F7
:1053D0000833BA6CFA62BB62B96AFA6A41E8002320
:1053E0007B627B6A002BE3D17B68DB6E012B18D1DB
:1053F0007B681B68FB60FB6853E8003FBB60BB68D1
:1054000023F010037B647B681B681A467B6CBB61CE
:105410007A617969BA6941E800233B613B69002BF5
:10542000E6D17B682022C3F88C207B680022DA66F4
:105430007B6800225A6700BF5437BD4680BC704766
:1054400080B584B000AF78607B689B6AFB60FB68C6
:105450000022A3F85E20FB680022A3F85620F8681B
:10546000FFF743FB00BF1037BD4680BD80B588B055
:1054700000AF78607B681B68FB60FB6853E8003F07
:10548000BB60BB6823F04003FB617B681B681A4666
:10549000FB69BB617A617969BA6941E800233B61C4
:1054A0003B69002BE6D17B682022C3F888207B680B
:1054B00000229A677868FFF70FFB00BF2037BD46D0
:1054C00080BD80B483B000AF786000BF0C37BD46AC
:1054D00080BC704780B483B000AF786000BF0C37E9
:1054E000BD4680BC704780B483B000AF786000BF19
:1054F0000C37BD4680BC704780B485B000AF786083
:105500007B6893F88430012B01D1022327E07B686C
:10551000012283F884207B682422C3F888207B68DA
:105520001B681B68FB607B681B681A687B681B68CC
:1055300022F001021A60FB6823F00053FB607B68D5
:1055400000225A667B681B68FA681A607B68202212
:10555000C3F888207B68002283F884200023184643
:105560001437BD4680BC704780B584B000AF78600A
:1055700039607B6893F88430012B01D102232DE040
:105580007B68012283F884207B682422C3F888206A
:105590007B681B681B68FB607B681B681A687B68FC
:1055A0001B6822F001021A607B681B689B6823F06D
:1055B00060417B681B683A680A439A60786800F02B
:1055C0004FF87B681B68FA681A607B682022C3F872
:1055D00088207B68002283F8842000231846103737
:1055E000BD4680BD80B584B000AF786039607B680F
:1055F00093F88430012B01D102232DE07B68012236
:1056000083F884207B682422C3F888207B681B6889
:105610001B68FB607B681B681A687B681B6822F04C
:1056200001021A607B681B689B6823F060617B68DD
:105630001B683A680A439A60786800F011F87B6842
:105640001B68FA681A607B682022C3F888207B6890
:10565000002283F88420002318461037BD4680BD01
:1056600080B485B000AF78607B685B6E002B08D19A
:105670007B680122A3F86A207B680122A3F86820D6
:1056800031E00823FB730823BB737B681B689B68AE
:105690005B0EDBB203F007037B737B681B689B68C0
:1056A0005B0FDBB203F007033B73BB7B3A7B104914
:1056B0008A5C02FB03F33A7B0E498A5C93FBF2F3AC
:1056C0009AB27B68A3F86A20FB7B7A7B08498A5CE4
:1056D00002FB03F37A7B07498A5C93FBF2F39AB2ED
:1056E0007B68A3F8682000BF1437BD4680BC7047B4
:1056F00060A4000868A4000880B584B002AF786098
:10570000244A7B681360244B00225A70224B0022EB
:105710005A60214B00229A601F4B00229A651F4855
:1057200001F08CFF1C4B00225A731B4B00221A7392
:1057300002F022FA0021002002F0EEFD04220021F6
:10574000012002F0B1FB002300224FF6FF714FF65B
:10575000FF7002F0E1FA00F091FE00230093104B7D
:1057600000224FF0FF310F4803F0B6FB00230093F7
:105770000D4B00224FF0FF310C4803F0ADFB094800
:1057800003F04EFC094803F04BFC00BF0837BD4650
:1057900080BD00BFB8020020BC0200207168000874
:1057A000F9670008180300200D6800083003002086
:1057B00080B500AF01F08AFF0346072B0AD0072B04
:1057C0000ADC042B02D0052B02D005E0022304E002
:1057D000012302E0032300E00023184680BD0000FF
:1057E00080B582B000AF0346FB712A4AFB79137083
:1057F000FB79184603F07DF9FB79052B0ED801A241
:1058000052F823F02B580008395800081D5800089A
:105810005F5800086D5800087B580008032002F00C
:105820001DFB1C4B00225A732FE0002002F016FBD8
:10583000184B00225A7328E0012002F00FFB154B91
:105840005A7B144B1B7B9A421ED0124B1A7B114B76
:105850005A73104B5B7B184600F098FF14E002204F
:1058600002F0FCFA0B4B00225A730EE0022002F009
:10587000F5FA084B00225A7307E0002002F0EEFA16
:10588000044B00225A7300E000BF00BF0837BD463A
:1058900080BD00BFBC02002080B582B000AF786040
:1058A000786802F095FA00BF0837BD4680BD80B524
:1058B00090B00AAFF860B9603B601346FB800123EB
:1058C000FB750023BB8200233B6100F0EAFD002052
:1058D000FFF786FFF868FFF7DFFF01230993002336
:1058E00008930023079300230693002305930023C6
:1058F0000493002303930023029303230193BB68C3
:10590000009300234FF41672B968002000F03CF8B1
:10591000002000F0CDFD00F067FF03461846FBF7BE
:10592000E5F903F017FC38610DE0002000F0AEFE51
:105930000346BB82B7F91420B7F906309A4202DD5C
:105940000023FB7506E0386903F016FC02463B684D
:105950009342EAD800F0A5FDFB7D18461837BD46F6
:1059600080BD80B582B000AF00237B6000230022A1
:105970000021002002F0D0F901F079FF78607B6807
:1059800018460837BD4680BD80B58AB000AFB96003
:105990007A601A460346FB731346BB73B94A97F8FD
:1059A0005430537003F063F897F85430002B01D053
:1059B00000233B8797F83C30002B04D0B24A97F87D
:1059C0004030137002E0B04BFF221A70FB7B052BB6
:1059D00009D0052B00F3D781002B00F0BF80012BED
:1059E00000F02481CFE1012002F088F8A54B0022CD
:1059F00083F83820A34A7B68D363A24B092283F83B
:105A00004420A04B4FF448721A64B86802F062FF59
:105A100003461A469B4B83F845209A4B00229A7303
:105A2000BB8EDB009AB2974B1A82964B00229A7477
:105A3000944B1022DA74934B00221A75914B00227A
:105A40005A75914B1A788F4B9A758E4B0122DA75E5
:105A50008C4B00221A760520FFF7C2FE8B4802F01D
:105A6000F1FA8B4802F0BCFB8A4A07F11C0392E86A
:105A7000030083E8030007F11C03184601F075FEDC
:105A800040F2FF1001F0C0FE40F6B80000F01CFE2E
:105A9000034687F8273097F8273023F0100387F85C
:105AA000273097F82730194640F6B80000F0FAFD85
:105AB000042140F6B90000F0F5FD40F69B0000F02F
:105AC00003FE034687F8273097F8273023F01C039E
:105AD00087F8273097F8273043F00803DBB21946E0
